{
  "address": "0x7a00ead5A3FEbc9611B3244BC1FA61D5902cc778",
  "abi": [
    {
      "inputs": [],
      "stateMutability": "nonpayable",
      "type": "constructor"
    },
    {
      "inputs": [],
      "name": "BorrowCapReached",
      "type": "error"
    },
    {
      "inputs": [],
      "name": "BorrowPaused",
      "type": "error"
    },
    {
      "inputs": [],
      "name": "ExitMarketBalanceOwned",
      "type": "error"
    },
    {
      "inputs": [
        {
          "internalType": "uint256",
          "name": "",
          "type": "uint256"
        }
      ],
      "name": "ExitMarketFailed",
      "type": "error"
    },
    {
      "inputs": [],
      "name": "IllegalArgument",
      "type": "error"
    },
    {
      "inputs": [],
      "name": "InvalidBlockNumber",
      "type": "error"
    },
    {
      "inputs": [],
      "name": "InvalidCollaternalFactor",
      "type": "error"
    },
    {
      "inputs": [],
      "name": "MarketAlreadyListed",
      "type": "error"
    },
    {
      "inputs": [],
      "name": "MarketNotListed",
      "type": "error"
    },
    {
      "inputs": [],
      "name": "MintPaused",
      "type": "error"
    },
    {
      "inputs": [],
      "name": "PriceError",
      "type": "error"
    },
    {
      "inputs": [],
      "name": "RedeemTokensZero",
      "type": "error"
    },
    {
      "inputs": [],
      "name": "RepayTooMuch",
      "type": "error"
    },
    {
      "inputs": [],
      "name": "SeizePaused",
      "type": "error"
    },
    {
      "inputs": [],
      "name": "SenderNotCToken",
      "type": "error"
    },
    {
      "inputs": [],
      "name": "TransferPaused",
      "type": "error"
    },
    {
      "inputs": [],
      "name": "Unauthorized",
      "type": "error"
    },
    {
      "anonymous": false,
      "inputs": [
        {
          "indexed": false,
          "internalType": "contract CToken",
          "name": "cToken",
          "type": "address"
        },
        {
          "indexed": false,
          "internalType": "string",
          "name": "action",
          "type": "string"
        },
        {
          "indexed": false,
          "internalType": "bool",
          "name": "pauseState",
          "type": "bool"
        }
      ],
      "name": "ActionPaused",
      "type": "event"
    },
    {
      "anonymous": false,
      "inputs": [
        {
          "indexed": false,
          "internalType": "string",
          "name": "action",
          "type": "string"
        },
        {
          "indexed": false,
          "internalType": "bool",
          "name": "pauseState",
          "type": "bool"
        }
      ],
      "name": "ActionPausedGlobally",
      "type": "event"
    },
    {
      "anonymous": false,
      "inputs": [
        {
          "indexed": false,
          "internalType": "contract CToken",
          "name": "cToken",
          "type": "address"
        },
        {
          "indexed": false,
          "internalType": "address",
          "name": "account",
          "type": "address"
        }
      ],
      "name": "MarketEntered",
      "type": "event"
    },
    {
      "anonymous": false,
      "inputs": [
        {
          "indexed": false,
          "internalType": "contract CToken",
          "name": "cToken",
          "type": "address"
        },
        {
          "indexed": false,
          "internalType": "address",
          "name": "account",
          "type": "address"
        }
      ],
      "name": "MarketExited",
      "type": "event"
    },
    {
      "anonymous": false,
      "inputs": [
        {
          "indexed": false,
          "internalType": "contract CToken",
          "name": "cToken",
          "type": "address"
        }
      ],
      "name": "MarketListed",
      "type": "event"
    },
    {
      "anonymous": false,
      "inputs": [
        {
          "indexed": true,
          "internalType": "contract CToken",
          "name": "cToken",
          "type": "address"
        },
        {
          "indexed": false,
          "internalType": "uint256",
          "name": "newBorrowCap",
          "type": "uint256"
        }
      ],
      "name": "NewBorrowCap",
      "type": "event"
    },
    {
      "anonymous": false,
      "inputs": [
        {
          "indexed": false,
          "internalType": "uint256",
          "name": "oldCloseFactorMantissa",
          "type": "uint256"
        },
        {
          "indexed": false,
          "internalType": "uint256",
          "name": "newCloseFactorMantissa",
          "type": "uint256"
        }
      ],
      "name": "NewCloseFactor",
      "type": "event"
    },
    {
      "anonymous": false,
      "inputs": [
        {
          "indexed": false,
          "internalType": "contract CToken",
          "name": "cToken",
          "type": "address"
        },
        {
          "indexed": false,
          "internalType": "uint256",
          "name": "oldCollateralFactorMantissa",
          "type": "uint256"
        },
        {
          "indexed": false,
          "internalType": "uint256",
          "name": "newCollateralFactorMantissa",
          "type": "uint256"
        }
      ],
      "name": "NewCollateralFactor",
      "type": "event"
    },
    {
      "anonymous": false,
      "inputs": [
        {
          "indexed": false,
          "internalType": "uint256",
          "name": "oldLiquidationIncentiveMantissa",
          "type": "uint256"
        },
        {
          "indexed": false,
          "internalType": "uint256",
          "name": "newLiquidationIncentiveMantissa",
          "type": "uint256"
        }
      ],
      "name": "NewLiquidationIncentive",
      "type": "event"
    },
    {
      "anonymous": false,
      "inputs": [
        {
          "indexed": false,
          "internalType": "address",
          "name": "cToken",
          "type": "address"
        },
        {
          "indexed": false,
          "internalType": "uint256",
          "name": "oldLiquidationIncentiveMantissa",
          "type": "uint256"
        },
        {
          "indexed": false,
          "internalType": "uint256",
          "name": "newLiquidationIncentiveMantissa",
          "type": "uint256"
        }
      ],
      "name": "NewMarketLiquidationIncentive",
      "type": "event"
    },
    {
      "anonymous": false,
      "inputs": [
        {
          "indexed": false,
          "internalType": "address",
          "name": "oldPauseGuardian",
          "type": "address"
        },
        {
          "indexed": false,
          "internalType": "address",
          "name": "newPauseGuardian",
          "type": "address"
        }
      ],
      "name": "NewPauseGuardian",
      "type": "event"
    },
    {
      "anonymous": false,
      "inputs": [
        {
          "indexed": false,
          "internalType": "contract PriceOracle",
          "name": "oldPriceOracle",
          "type": "address"
        },
        {
          "indexed": false,
          "internalType": "contract PriceOracle",
          "name": "newPriceOracle",
          "type": "address"
        }
      ],
      "name": "NewPriceOracle",
      "type": "event"
    },
    {
      "inputs": [
        {
          "internalType": "contract Unitroller",
          "name": "unitroller",
          "type": "address"
        }
      ],
      "name": "_become",
      "outputs": [],
      "stateMutability": "nonpayable",
      "type": "function"
    },
    {
      "inputs": [
        {
          "internalType": "contract CToken",
          "name": "cToken",
          "type": "address"
        },
        {
          "internalType": "bool",
          "name": "state",
          "type": "bool"
        }
      ],
      "name": "_setBorrowPaused",
      "outputs": [
        {
          "internalType": "bool",
          "name": "",
          "type": "bool"
        }
      ],
      "stateMutability": "nonpayable",
      "type": "function"
    },
    {
      "inputs": [
        {
          "internalType": "uint256",
          "name": "newCloseFactorMantissa",
          "type": "uint256"
        }
      ],
      "name": "_setCloseFactor",
      "outputs": [
        {
          "internalType": "uint256",
          "name": "",
          "type": "uint256"
        }
      ],
      "stateMutability": "nonpayable",
      "type": "function"
    },
    {
      "inputs": [
        {
          "internalType": "contract CToken",
          "name": "cToken",
          "type": "address"
        },
        {
          "internalType": "uint256",
          "name": "newCollateralFactorMantissa",
          "type": "uint256"
        },
        {
          "internalType": "uint256",
          "name": "liquidateCollateralFactorExtra",
          "type": "uint256"
        }
      ],
      "name": "_setCollateralFactor",
      "outputs": [
        {
          "internalType": "uint256",
          "name": "",
          "type": "uint256"
        }
      ],
      "stateMutability": "nonpayable",
      "type": "function"
    },
    {
      "inputs": [
        {
          "internalType": "uint256",
          "name": "newLiquidationIncentiveMantissa",
          "type": "uint256"
        },
        {
          "internalType": "address",
          "name": "cToken",
          "type": "address"
        }
      ],
      "name": "_setLiquidationIncentive",
      "outputs": [
        {
          "internalType": "uint256",
          "name": "",
          "type": "uint256"
        }
      ],
      "stateMutability": "nonpayable",
      "type": "function"
    },
    {
      "inputs": [
        {
          "internalType": "contract CToken[]",
          "name": "cTokens",
          "type": "address[]"
        },
        {
          "internalType": "uint256[]",
          "name": "newBorrowCaps",
          "type": "uint256[]"
        }
      ],
      "name": "_setMarketBorrowCaps",
      "outputs": [],
      "stateMutability": "nonpayable",
      "type": "function"
    },
    {
      "inputs": [
        {
          "internalType": "contract CToken",
          "name": "cToken",
          "type": "address"
        },
        {
          "internalType": "bool",
          "name": "state",
          "type": "bool"
        }
      ],
      "name": "_setMintPaused",
      "outputs": [
        {
          "internalType": "bool",
          "name": "",
          "type": "bool"
        }
      ],
      "stateMutability": "nonpayable",
      "type": "function"
    },
    {
      "inputs": [
        {
          "internalType": "address",
          "name": "newPauseGuardian",
          "type": "address"
        }
      ],
      "name": "_setPauseGuardian",
      "outputs": [],
      "stateMutability": "nonpayable",
      "type": "function"
    },
    {
      "inputs": [
        {
          "internalType": "contract PriceOracle",
          "name": "newOracle",
          "type": "address"
        }
      ],
      "name": "_setPriceOracle",
      "outputs": [
        {
          "internalType": "uint256",
          "name": "",
          "type": "uint256"
        }
      ],
      "stateMutability": "nonpayable",
      "type": "function"
    },
    {
      "inputs": [
        {
          "internalType": "contract RewardsPool",
          "name": "rewardsPool_",
          "type": "address"
        }
      ],
      "name": "_setRewardsPool",
      "outputs": [],
      "stateMutability": "nonpayable",
      "type": "function"
    },
    {
      "inputs": [
        {
          "internalType": "bool",
          "name": "state",
          "type": "bool"
        }
      ],
      "name": "_setSeizePaused",
      "outputs": [
        {
          "internalType": "bool",
          "name": "",
          "type": "bool"
        }
      ],
      "stateMutability": "nonpayable",
      "type": "function"
    },
    {
      "inputs": [
        {
          "internalType": "contract ISmartAccountFactory",
          "name": "smartAccountFactory_",
          "type": "address"
        }
      ],
      "name": "_setSmartAccountFactory",
      "outputs": [],
      "stateMutability": "nonpayable",
      "type": "function"
    },
    {
      "inputs": [
        {
          "internalType": "bool",
          "name": "state",
          "type": "bool"
        }
      ],
      "name": "_setTransferPaused",
      "outputs": [
        {
          "internalType": "bool",
          "name": "",
          "type": "bool"
        }
      ],
      "stateMutability": "nonpayable",
      "type": "function"
    },
    {
      "inputs": [
        {
          "internalType": "contract CToken",
          "name": "cToken",
          "type": "address"
        }
      ],
      "name": "_supportMarket",
      "outputs": [
        {
          "internalType": "uint256",
          "name": "",
          "type": "uint256"
        }
      ],
      "stateMutability": "nonpayable",
      "type": "function"
    },
    {
      "inputs": [
        {
          "internalType": "address",
          "name": "",
          "type": "address"
        },
        {
          "internalType": "uint256",
          "name": "",
          "type": "uint256"
        }
      ],
      "name": "accountAssets",
      "outputs": [
        {
          "internalType": "contract CToken",
          "name": "",
          "type": "address"
        }
      ],
      "stateMutability": "view",
      "type": "function"
    },
    {
      "inputs": [],
      "name": "admin",
      "outputs": [
        {
          "internalType": "address",
          "name": "",
          "type": "address"
        }
      ],
      "stateMutability": "view",
      "type": "function"
    },
    {
      "inputs": [
        {
          "internalType": "uint256",
          "name": "",
          "type": "uint256"
        }
      ],
      "name": "allMarkets",
      "outputs": [
        {
          "internalType": "contract CToken",
          "name": "",
          "type": "address"
        }
      ],
      "stateMutability": "view",
      "type": "function"
    },
    {
      "inputs": [
        {
          "internalType": "address",
          "name": "cToken",
          "type": "address"
        },
        {
          "internalType": "address",
          "name": "borrower",
          "type": "address"
        },
        {
          "internalType": "uint256",
          "name": "borrowAmount",
          "type": "uint256"
        }
      ],
      "name": "borrowAllowed",
      "outputs": [
        {
          "internalType": "uint256",
          "name": "",
          "type": "uint256"
        }
      ],
      "stateMutability": "nonpayable",
      "type": "function"
    },
    {
      "inputs": [
        {
          "internalType": "address",
          "name": "",
          "type": "address"
        }
      ],
      "name": "borrowCaps",
      "outputs": [
        {
          "internalType": "uint256",
          "name": "",
          "type": "uint256"
        }
      ],
      "stateMutability": "view",
      "type": "function"
    },
    {
      "inputs": [
        {
          "internalType": "address",
          "name": "",
          "type": "address"
        }
      ],
      "name": "borrowGuardianPaused",
      "outputs": [
        {
          "internalType": "bool",
          "name": "",
          "type": "bool"
        }
      ],
      "stateMutability": "view",
      "type": "function"
    },
    {
      "inputs": [
        {
          "internalType": "address",
          "name": "account",
          "type": "address"
        },
        {
          "internalType": "contract CToken",
          "name": "cToken",
          "type": "address"
        }
      ],
      "name": "checkMembership",
      "outputs": [
        {
          "internalType": "bool",
          "name": "",
          "type": "bool"
        }
      ],
      "stateMutability": "view",
      "type": "function"
    },
    {
      "inputs": [],
      "name": "closeFactorMantissa",
      "outputs": [
        {
          "internalType": "uint256",
          "name": "",
          "type": "uint256"
        }
      ],
      "stateMutability": "view",
      "type": "function"
    },
    {
      "inputs": [],
      "name": "comptrollerImplementation",
      "outputs": [
        {
          "internalType": "address",
          "name": "",
          "type": "address"
        }
      ],
      "stateMutability": "view",
      "type": "function"
    },
    {
      "inputs": [
        {
          "internalType": "address[]",
          "name": "cTokens",
          "type": "address[]"
        }
      ],
      "name": "enterMarkets",
      "outputs": [],
      "stateMutability": "nonpayable",
      "type": "function"
    },
    {
      "inputs": [
        {
          "internalType": "address",
          "name": "cTokenAddress",
          "type": "address"
        }
      ],
      "name": "exitMarket",
      "outputs": [],
      "stateMutability": "nonpayable",
      "type": "function"
    },
    {
      "inputs": [
        {
          "internalType": "address",
          "name": "account",
          "type": "address"
        }
      ],
      "name": "getAccountLiquidity",
      "outputs": [
        {
          "internalType": "uint256",
          "name": "",
          "type": "uint256"
        },
        {
          "internalType": "uint256",
          "name": "",
          "type": "uint256"
        },
        {
          "internalType": "uint256",
          "name": "",
          "type": "uint256"
        }
      ],
      "stateMutability": "view",
      "type": "function"
    },
    {
      "inputs": [],
      "name": "getAllMarkets",
      "outputs": [
        {
          "internalType": "contract CToken[]",
          "name": "",
          "type": "address[]"
        }
      ],
      "stateMutability": "view",
      "type": "function"
    },
    {
      "inputs": [
        {
          "internalType": "address",
          "name": "account",
          "type": "address"
        }
      ],
      "name": "getAssetsIn",
      "outputs": [
        {
          "internalType": "contract CToken[]",
          "name": "",
          "type": "address[]"
        }
      ],
      "stateMutability": "view",
      "type": "function"
    },
    {
      "inputs": [],
      "name": "getBlockNumber",
      "outputs": [
        {
          "internalType": "uint256",
          "name": "",
          "type": "uint256"
        }
      ],
      "stateMutability": "view",
      "type": "function"
    },
    {
      "inputs": [
        {
          "internalType": "address",
          "name": "account",
          "type": "address"
        },
        {
          "internalType": "address",
          "name": "cTokenModify",
          "type": "address"
        },
        {
          "internalType": "uint256",
          "name": "redeemTokens",
          "type": "uint256"
        },
        {
          "internalType": "uint256",
          "name": "borrowAmount",
          "type": "uint256"
        }
      ],
      "name": "getHypotheticalAccountLiquidity",
      "outputs": [
        {
          "internalType": "uint256",
          "name": "",
          "type": "uint256"
        },
        {
          "internalType": "uint256",
          "name": "",
          "type": "uint256"
        },
        {
          "internalType": "uint256",
          "name": "",
          "type": "uint256"
        }
      ],
      "stateMutability": "view",
      "type": "function"
    },
    {
      "inputs": [],
      "name": "isComptroller",
      "outputs": [
        {
          "internalType": "bool",
          "name": "",
          "type": "bool"
        }
      ],
      "stateMutability": "view",
      "type": "function"
    },
    {
      "inputs": [
        {
          "internalType": "address",
          "name": "account",
          "type": "address"
        }
      ],
      "name": "isValidSmartAccount",
      "outputs": [
        {
          "internalType": "bool",
          "name": "",
          "type": "bool"
        }
      ],
      "stateMutability": "nonpayable",
      "type": "function"
    },
    {
      "inputs": [
        {
          "internalType": "address",
          "name": "cTokenBorrowed",
          "type": "address"
        },
        {
          "internalType": "address",
          "name": "cTokenCollateral",
          "type": "address"
        },
        {
          "internalType": "address",
          "name": "liquidator",
          "type": "address"
        },
        {
          "internalType": "address",
          "name": "borrower",
          "type": "address"
        },
        {
          "internalType": "uint256",
          "name": "repayAmount",
          "type": "uint256"
        }
      ],
      "name": "liquidateBorrowAllowed",
      "outputs": [
        {
          "internalType": "uint256",
          "name": "",
          "type": "uint256"
        }
      ],
      "stateMutability": "view",
      "type": "function"
    },
    {
      "inputs": [
        {
          "internalType": "address",
          "name": "cTokenBorrowed",
          "type": "address"
        },
        {
          "internalType": "address",
          "name": "cTokenCollateral",
          "type": "address"
        },
        {
          "internalType": "uint256",
          "name": "actualRepayAmount",
          "type": "uint256"
        }
      ],
      "name": "liquidateCalculateSeizeTokens",
      "outputs": [
        {
          "internalType": "uint256",
          "name": "",
          "type": "uint256"
        },
        {
          "internalType": "uint256",
          "name": "",
          "type": "uint256"
        }
      ],
      "stateMutability": "view",
      "type": "function"
    },
    {
      "inputs": [],
      "name": "liquidationIncentiveMantissa",
      "outputs": [
        {
          "internalType": "uint256",
          "name": "",
          "type": "uint256"
        }
      ],
      "stateMutability": "view",
      "type": "function"
    },
    {
      "inputs": [
        {
          "internalType": "address",
          "name": "",
          "type": "address"
        }
      ],
      "name": "markets",
      "outputs": [
        {
          "internalType": "bool",
          "name": "isListed",
          "type": "bool"
        },
        {
          "internalType": "uint256",
          "name": "collateralFactorMantissa",
          "type": "uint256"
        },
        {
          "internalType": "uint256",
          "name": "liquidateCollateralFactorMantissa",
          "type": "uint256"
        },
        {
          "internalType": "uint256",
          "name": "liquidationIncentiveMantissa",
          "type": "uint256"
        }
      ],
      "stateMutability": "view",
      "type": "function"
    },
    {
      "inputs": [
        {
          "internalType": "address",
          "name": "cToken",
          "type": "address"
        },
        {
          "internalType": "address",
          "name": "",
          "type": "address"
        },
        {
          "internalType": "uint256",
          "name": "",
          "type": "uint256"
        }
      ],
      "name": "mintAllowed",
      "outputs": [
        {
          "internalType": "uint256",
          "name": "",
          "type": "uint256"
        }
      ],
      "stateMutability": "nonpayable",
      "type": "function"
    },
    {
      "inputs": [
        {
          "internalType": "address",
          "name": "",
          "type": "address"
        }
      ],
      "name": "mintGuardianPaused",
      "outputs": [
        {
          "internalType": "bool",
          "name": "",
          "type": "bool"
        }
      ],
      "stateMutability": "view",
      "type": "function"
    },
    {
      "inputs": [],
      "name": "oracle",
      "outputs": [
        {
          "internalType": "contract PriceOracle",
          "name": "",
          "type": "address"
        }
      ],
      "stateMutability": "view",
      "type": "function"
    },
    {
      "inputs": [],
      "name": "pauseGuardian",
      "outputs": [
        {
          "internalType": "address",
          "name": "",
          "type": "address"
        }
      ],
      "stateMutability": "view",
      "type": "function"
    },
    {
      "inputs": [],
      "name": "pendingAdmin",
      "outputs": [
        {
          "internalType": "address",
          "name": "",
          "type": "address"
        }
      ],
      "stateMutability": "view",
      "type": "function"
    },
    {
      "inputs": [],
      "name": "pendingComptrollerImplementation",
      "outputs": [
        {
          "internalType": "address",
          "name": "",
          "type": "address"
        }
      ],
      "stateMutability": "view",
      "type": "function"
    },
    {
      "inputs": [
        {
          "internalType": "address",
          "name": "cToken",
          "type": "address"
        },
        {
          "internalType": "address",
          "name": "redeemer",
          "type": "address"
        },
        {
          "internalType": "uint256",
          "name": "redeemTokens",
          "type": "uint256"
        }
      ],
      "name": "redeemAllowed",
      "outputs": [
        {
          "internalType": "uint256",
          "name": "",
          "type": "uint256"
        }
      ],
      "stateMutability": "nonpayable",
      "type": "function"
    },
    {
      "inputs": [
        {
          "internalType": "address",
          "name": "cToken",
          "type": "address"
        },
        {
          "internalType": "address",
          "name": "redeemer",
          "type": "address"
        },
        {
          "internalType": "uint256",
          "name": "redeemAmount",
          "type": "uint256"
        },
        {
          "internalType": "uint256",
          "name": "redeemTokens",
          "type": "uint256"
        }
      ],
      "name": "redeemVerify",
      "outputs": [],
      "stateMutability": "pure",
      "type": "function"
    },
    {
      "inputs": [
        {
          "internalType": "address",
          "name": "cToken",
          "type": "address"
        },
        {
          "internalType": "address",
          "name": "payer",
          "type": "address"
        },
        {
          "internalType": "address",
          "name": "borrower",
          "type": "address"
        },
        {
          "internalType": "uint256",
          "name": "repayAmount",
          "type": "uint256"
        }
      ],
      "name": "repayBorrowAllowed",
      "outputs": [
        {
          "internalType": "uint256",
          "name": "",
          "type": "uint256"
        }
      ],
      "stateMutability": "nonpayable",
      "type": "function"
    },
    {
      "inputs": [],
      "name": "rewardsPool",
      "outputs": [
        {
          "internalType": "contract RewardsPool",
          "name": "",
          "type": "address"
        }
      ],
      "stateMutability": "view",
      "type": "function"
    },
    {
      "inputs": [
        {
          "internalType": "address",
          "name": "cTokenCollateral",
          "type": "address"
        },
        {
          "internalType": "address",
          "name": "cTokenBorrowed",
          "type": "address"
        },
        {
          "internalType": "address",
          "name": "liquidator",
          "type": "address"
        },
        {
          "internalType": "address",
          "name": "borrower",
          "type": "address"
        },
        {
          "internalType": "uint256",
          "name": "seizeTokens",
          "type": "uint256"
        }
      ],
      "name": "seizeAllowed",
      "outputs": [
        {
          "internalType": "uint256",
          "name": "",
          "type": "uint256"
        }
      ],
      "stateMutability": "nonpayable",
      "type": "function"
    },
    {
      "inputs": [],
      "name": "seizeGuardianPaused",
      "outputs": [
        {
          "internalType": "bool",
          "name": "",
          "type": "bool"
        }
      ],
      "stateMutability": "view",
      "type": "function"
    },
    {
      "inputs": [],
      "name": "smartAccountFactory",
      "outputs": [
        {
          "internalType": "contract ISmartAccountFactory",
          "name": "",
          "type": "address"
        }
      ],
      "stateMutability": "view",
      "type": "function"
    },
    {
      "inputs": [
        {
          "internalType": "address",
          "name": "cToken",
          "type": "address"
        },
        {
          "internalType": "address",
          "name": "src",
          "type": "address"
        },
        {
          "internalType": "address",
          "name": "dst",
          "type": "address"
        },
        {
          "internalType": "uint256",
          "name": "transferTokens",
          "type": "uint256"
        }
      ],
      "name": "transferAllowed",
      "outputs": [
        {
          "internalType": "uint256",
          "name": "",
          "type": "uint256"
        }
      ],
      "stateMutability": "nonpayable",
      "type": "function"
    },
    {
      "inputs": [],
      "name": "transferGuardianPaused",
      "outputs": [
        {
          "internalType": "bool",
          "name": "",
          "type": "bool"
        }
      ],
      "stateMutability": "view",
      "type": "function"
    },
    {
      "inputs": [
        {
          "internalType": "address",
          "name": "cToken",
          "type": "address"
        },
        {
          "internalType": "FixedMath.Exp",
          "name": "marketBorrowIndex",
          "type": "uint256"
        }
      ],
      "name": "updateCompBorrowIndex",
      "outputs": [],
      "stateMutability": "nonpayable",
      "type": "function"
    },
    {
      "inputs": [
        {
          "internalType": "address",
          "name": "cToken",
          "type": "address"
        }
      ],
      "name": "updateCompSupplyIndex",
      "outputs": [],
      "stateMutability": "nonpayable",
      "type": "function"
    }
  ],
  "transactionHash": "0xa884b105b65a59db4167acf72ac0ed31619671971077950f52c91e739f914c60",
  "args": [],
  "numDeployments": 2,
  "solcInputHash": "6754db73477dfe8e8fd91969fa0cfe64",
  "bytecode": "0x608060405234801561001057600080fd5b50600080546001600160a01b0319163317905561321b806100326000396000f3fe608060405234801561001057600080fd5b50600436106103265760003560e01c80637dc0d1d0116101b8578063c488847b11610104578063de87a4e4116100a2578063eabe7d911161007c578063eabe7d91146107b6578063ede4edd0146107c9578063f73acd62146107dc578063f851a440146107ef57600080fd5b8063de87a4e414610787578063e3f96ae71461079a578063e8755446146107ad57600080fd5b8063d02f7351116100de578063d02f73511461073b578063da3d454c1461074e578063dce1544914610761578063dcfbc0c71461077457600080fd5b8063c488847b146106ed578063c6d0c8fe14610715578063cafe23041461072857600080fd5b8063a76b3fda11610171578063b0772d0b1161014b578063b0772d0b146106ac578063bb82aa5e146106b4578063bdcdc258146106c7578063c2998238146106da57600080fd5b8063a76b3fda14610665578063abfceffc14610678578063ac0b0bb71461069857600080fd5b80637dc0d1d01461057c57806387f763031461058f5780638e8f294b146105a35780638ebf6364146105fe578063929fe9a1146106115780639962a28c1461065257600080fd5b80634ada90af116102775780635ec88c7911610230578063607ef6c11161020a578063607ef6c114610510578063656d3381146105235780636d154ea514610536578063731f0c2b1461055957600080fd5b80635ec88c79146104d75780635f5af1aa146104ea5780635fc7e71e146104fd57600080fd5b80634ada90af146104545780634e79238f1461045d5780634ef4c3e11461048b57806351dff9891461049e57806352d84d1e146104b157806355ee1fe1146104c457600080fd5b806324a3d622116102e4578063317b0b77116102be578063317b0b77146104085780633bcf7ec11461041b57806342cbb15c1461042e5780634a5844321461043457600080fd5b806324a3d622146103cf57806326782247146103e25780632d70db78146103f557600080fd5b80627e3dd21461032b5780630359fea914610348578063082bc0ab1461037357806318c882a5146103885780631d504dc61461039b57806324008a62146103ae575b600080fd5b610333600181565b60405190151581526020015b60405180910390f35b600f5461035b906001600160a01b031681565b6040516001600160a01b03909116815260200161033f565b610386610381366004612c0c565b610802565b005b610333610396366004612c37565b610876565b6103866103a9366004612c0c565b610943565b6103c16103bc366004612c70565b610a56565b60405190815260200161033f565b60095461035b906001600160a01b031681565b60015461035b906001600160a01b031681565b610333610403366004612cc1565b610afc565b6103c1610416366004612cde565b610b7e565b610333610429366004612c37565b610bee565b436103c1565b6103c1610442366004612c0c565b600d6020526000908152604090205481565b6103c160065481565b61047061046b366004612cf7565b610cac565b6040805193845260208401929092529082015260600161033f565b6103c1610499366004612d3d565b610cec565b6103866104ac366004612cf7565b610d64565b61035b6104bf366004612cde565b610d96565b6103c16104d2366004612c0c565b610dc0565b6104706104e5366004612c0c565b610e54565b6103866104f8366004612c0c565b610e8f565b6103c161050b366004612d7e565b610f22565b61038661051e366004612e2e565b611085565b610386610531366004612c0c565b611205565b610333610544366004612c0c565b600b6020526000908152604090205460ff1681565b610333610567366004612c0c565b600a6020526000908152604090205460ff1681565b60045461035b906001600160a01b031681565b60095461033390600160a01b900460ff1681565b6105dc6105b1366004612c0c565b600860205260009081526040902080546001820154600283015460039093015460ff90921692909184565b604080519415158552602085019390935291830152606082015260800161033f565b61033361060c366004612cc1565b611251565b61033361061f366004612e9a565b6001600160a01b038082166000908152600860209081526040808320938616835260049093019052205460ff1692915050565b610386610660366004612c0c565b6112ca565b6103c1610673366004612c0c565b611316565b61068b610686366004612c0c565b61145f565b60405161033f9190612ec8565b60095461033390600160a81b900460ff1681565b61068b6114d5565b60025461035b906001600160a01b031681565b6103c16106d5366004612c70565b611537565b6103866106e8366004612f2b565b61158a565b6107006106fb366004612d3d565b6115d7565b6040805192835260208301919091520161033f565b6103c1610723366004612ff0565b6117bc565b610333610736366004612c0c565b6118d1565b6103c1610749366004612d7e565b611940565b6103c161075c366004612d3d565b611ab2565b61035b61076f366004613015565b611dbc565b60035461035b906001600160a01b031681565b6103c1610795366004613041565b611df4565b6103866107a8366004613015565b611faf565b6103c160055481565b6103c16107c4366004612d3d565b61202e565b6103866107d7366004612c0c565b61205f565b600e5461035b906001600160a01b031681565b60005461035b906001600160a01b031681565b600f546001600160a01b03161561087357600f5460405163a1778b3960e01b81526001600160a01b0383811660048301529091169063a1778b3990602401600060405180830381600087803b15801561085a57600080fd5b505af115801561086e573d6000803e3d6000fd5b505050505b50565b6001600160a01b03821660009081526008602052604081205460ff166108af576040516334b04fe360e11b815260040160405180910390fd5b6108b88261234f565b6001600160a01b0383166000818152600b6020908152604091829020805460ff19168615159081179091558251938452606091840182905260069184019190915265426f72726f7760d01b6080840152908201527f71aec636243f9709bb0007ae15e9afb8150ab01716d75fd7573be5cc096e03b09060a0015b60405180910390a150805b92915050565b806001600160a01b031663f851a4406040518163ffffffff1660e01b8152600401602060405180830381865afa158015610981573d6000803e3d6000fd5b505050506040513d601f19601f820116820180604052508101906109a59190613076565b6001600160a01b0316336001600160a01b0316146109d5576040516282b42960e81b815260040160405180910390fd5b806001600160a01b031663c1e803346040518163ffffffff1660e01b81526004016020604051808303816000875af1158015610a15573d6000803e3d6000fd5b505050506040513d601f19601f82011682018060405250810190610a399190613093565b15610873576040516282b42960e81b815260040160405180910390fd5b6001600160a01b03841660009081526008602052604081205460ff16610a7e57506004610af4565b6000856001600160a01b031663aa5af0fd6040518163ffffffff1660e01b8152600401602060405180830381865afa158015610abe573d6000803e3d6000fd5b505050506040513d601f19601f82011682018060405250810190610ae29190613093565b9050610aee8682611faf565b60009150505b949350505050565b6000610b078261234f565b60098054831515600160a81b0260ff60a81b199091161790556040517f27ee2b767de43e8b48d1666d8c451a273fbf857e760fda6e95d0d582f68534bc90610b729084906040808252600590820152645365697a6560d81b6060820152901515602082015260800190565b60405180910390a15090565b600080546001600160a01b03163314610ba9576040516282b42960e81b815260040160405180910390fd5b60055460408051918252602082018490527f3b9670cf975d26958e754b57098eaa2ac914d8d2a31b83257997b9f346110fd9910160405180910390a150600555600090565b6001600160a01b03821660009081526008602052604081205460ff16610c27576040516334b04fe360e11b815260040160405180910390fd5b610c308261234f565b6001600160a01b0383166000818152600a6020908152604091829020805460ff19168615159081179091558251938452606091840182905260049184019190915263135a5b9d60e21b6080840152908201527f71aec636243f9709bb0007ae15e9afb8150ab01716d75fd7573be5cc096e03b09060a001610932565b600080600080600080610cc18a8a8a8a6123ca565b925092509250826006811115610cd957610cd96130ac565b95509093509150505b9450945094915050565b6001600160a01b0383166000908152600a602052604081205460ff1615610d2657604051636be9245d60e11b815260040160405180910390fd5b6001600160a01b03841660009081526008602052604090205460ff16610d505760045b9050610d5d565b610d5984610802565b5060005b9392505050565b80158015610d725750600082115b15610d905760405163bf64566b60e01b815260040160405180910390fd5b50505050565b600c8181548110610da657600080fd5b6000918252602090912001546001600160a01b0316905081565b600080546001600160a01b03163314610deb576040516282b42960e81b815260040160405180910390fd5b600454604080516001600160a01b03928316815291841660208301527fd52b2b9b7e9ee655fcb95d2e5b9e0c9f69e7ef2b8e9d2d0ea78402d576d22e22910160405180910390a1600480546001600160a01b0319166001600160a01b038416179055600061093d565b600080600080600080610e6b8760008060006123ca565b925092509250826006811115610e8357610e836130ac565b97919650945092505050565b6000546001600160a01b03163314610eb9576040516282b42960e81b815260040160405180910390fd5b600954604080516001600160a01b03928316815291831660208301527f0613b6ee6a04f0d09f390e4d9318894b9f6ac7fd83897cd8d18896ba579c401e910160405180910390a1600980546001600160a01b0319166001600160a01b0392909216919091179055565b6001600160a01b03851660009081526008602052604081205460ff161580610f6357506001600160a01b03851660009081526008602052604090205460ff16155b15610f725760045b905061107c565b6040516395dd919360e01b81526001600160a01b038481166004830152600091908816906395dd919390602401602060405180830381865afa158015610fbc573d6000803e3d6000fd5b505050506040513d601f19601f82011682018060405250810190610fe09190613093565b9050610feb876127f8565b156110165782811015611011576040516316b1ae3960e11b815260040160405180910390fd5b611076565b60008061102286610e54565b9250509150816000146110395750915061107c9050565b8060000361104d576002935050505061107c565b600061105b600554856128b7565b90508086111561107257600694505050505061107c565b5050505b60009150505b95945050505050565b6000546001600160a01b031633146110af576040516282b42960e81b815260040160405180910390fd5b828181158015906110bf57508082145b6111005760405162461bcd60e51b815260206004820152600d60248201526c1a5b9d985b1a59081a5b9c1d5d609a1b60448201526064015b60405180910390fd5b60005b828110156111fc5784848281811061111d5761111d6130c2565b90506020020135600d600089898581811061113a5761113a6130c2565b905060200201602081019061114f9190612c0c565b6001600160a01b0316815260208101919091526040016000205586868281811061117b5761117b6130c2565b90506020020160208101906111909190612c0c565b6001600160a01b03167f6f1951b2aad10f3fc81b86d91105b413a5b3f847a34bbc5ce1904201b14438f68686848181106111cc576111cc6130c2565b905060200201356040516111e291815260200190565b60405180910390a2806111f4816130ee565b915050611103565b50505050505050565b6000546001600160a01b0316331461122f576040516282b42960e81b815260040160405180910390fd5b600f80546001600160a01b0319166001600160a01b0392909216919091179055565b600061125c8261234f565b60098054831515600160a01b0260ff60a01b199091161790556040517f27ee2b767de43e8b48d1666d8c451a273fbf857e760fda6e95d0d582f68534bc90610b729084906040808252600890820152672a3930b739b332b960c11b6060820152901515602082015260800190565b6000546001600160a01b031633146112f4576040516282b42960e81b815260040160405180910390fd5b600e80546001600160a01b0319166001600160a01b0392909216919091179055565b600080546001600160a01b03163314611341576040516282b42960e81b815260040160405180910390fd5b6001600160a01b03821660009081526008602052604090205460ff161561137b57604051634d5eeb4960e01b815260040160405180910390fd5b816001600160a01b031663fe9c44ae6040518163ffffffff1660e01b8152600401602060405180830381865afa1580156113b9573d6000803e3d6000fd5b505050506040513d601f19601f820116820180604052508101906113dd9190613107565b506001600160a01b0382166000908152600860205260408120805460ff191660019081178255810191909155600654600382015561141a836128cf565b6040516001600160a01b03841681527fcf583bb0c569eb967f806b11601c4cb93c10310485c67add5f8362c2f212321f9060200160405180910390a160009392505050565b6001600160a01b03811660009081526007602090815260408083208054825181850281018501909352808352606094938301828280156114c857602002820191906000526020600020905b81546001600160a01b031681526001909101906020018083116114aa575b5093979650505050505050565b6060600c80548060200260200160405190810160405280929190818152602001828054801561152d57602002820191906000526020600020905b81546001600160a01b0316815260019091019060200180831161150f575b5050505050905090565b600954600090600160a01b900460ff16156115655760405163cd1fda9f60e01b815260040160405180910390fd5b60006115728686856129b7565b90508015611581579050610af4565b610aee86610802565b805160005b818110156115d25760008382815181106115ab576115ab6130c2565b602002602001015190506115bf8133612a76565b50806115ca816130ee565b91505061158f565b505050565b6004805460405163fc57d4df60e01b81526001600160a01b03868116938201939093526000928392839291169063fc57d4df90602401602060405180830381865afa15801561162a573d6000803e3d6000fd5b505050506040513d601f19601f8201168201806040525081019061164e9190613093565b6004805460405163fc57d4df60e01b81526001600160a01b038981169382019390935292935060009291169063fc57d4df90602401602060405180830381865afa1580156116a0573d6000803e3d6000fd5b505050506040513d601f19601f820116820180604052508101906116c49190613093565b90508115806116d1575080155b156116ef576040516348fa9b2b60e11b815260040160405180910390fd5b6000866001600160a01b031663182df0f56040518163ffffffff1660e01b8152600401602060405180830381865afa15801561172f573d6000803e3d6000fd5b505050506040513d601f19601f820116820180604052508101906117539190613093565b6001600160a01b038816600090815260086020526040812060030154919250908190819081906117838189612b6f565b935061178f8787612b6f565b925061179b8484612b6f565b91506117a7828c6128b7565b60009e909d509b505050505050505050505050565b600080546001600160a01b031633146117e7576040516282b42960e81b815260040160405180910390fd5b6001600160a01b0382161561188b576001600160a01b0382166000908152600860205260409020805460ff16611830576040516334b04fe360e11b815260040160405180910390fd5b600654604080516001600160a01b0386168152602081019290925281018590527f63d34d4644180c2a888e32f4ee4da6d02be25b407e61c64cf4b6a052d115977e9060600160405180910390a160030183905550600061093d565b60065460408051918252602082018590527faeba5a6c40a8ac138134bff1aaa65debf25971188a58804bad717f82f0ec1316910160405180910390a15050600655600090565b600e546040516332bf88c160e21b81526001600160a01b038381166004830152600092169063cafe230490602401602060405180830381865afa15801561191c573d6000803e3d6000fd5b505050506040513d601f19601f8201168201806040525081019061093d9190613107565b600954600090600160a81b900460ff161561196e576040516307f4077b60e11b815260040160405180910390fd5b6001600160a01b03861660009081526008602052604090205460ff1615806119af57506001600160a01b03851660009081526008602052604090205460ff16155b156119bb576004610f6b565b846001600160a01b0316635fe3b5676040518163ffffffff1660e01b8152600401602060405180830381865afa1580156119f9573d6000803e3d6000fd5b505050506040513d601f19601f82011682018060405250810190611a1d9190613076565b6001600160a01b0316866001600160a01b0316635fe3b5676040518163ffffffff1660e01b8152600401602060405180830381865afa158015611a64573d6000803e3d6000fd5b505050506040513d601f19601f82011682018060405250810190611a889190613076565b6001600160a01b031614611a9d576001610f6b565b611aa686610802565b60009695505050505050565b6001600160a01b0383166000908152600b602052604081205460ff1615611aec5760405163095865a360e11b815260040160405180910390fd5b6001600160a01b03841660009081526008602052604090205460ff16611b13576004610d49565b6001600160a01b038085166000908152600860209081526040808320938716835260049093019052205460ff16611bb057336001600160a01b03851614611b6d576040516301ef5baf60e61b815260040160405180910390fd5b611b773384612a76565b6001600160a01b038085166000908152600860209081526040808320938716835260049093019052205460ff16611bb057611bb0613124565b6004805460405163fc57d4df60e01b81526001600160a01b038781169382019390935291169063fc57d4df90602401602060405180830381865afa158015611bfc573d6000803e3d6000fd5b505050506040513d601f19601f82011682018060405250810190611c209190613093565b600003611c2e576005610d49565b6001600160a01b0384166000908152600d60205260409020548015611ce4576000856001600160a01b03166347bd37186040518163ffffffff1660e01b8152600401602060405180830381865afa158015611c8d573d6000803e3d6000fd5b505050506040513d601f19601f82011682018060405250810190611cb19190613093565b90506000611cbf8286612b8e565b9050828110611ce1576040516353977d1f60e01b815260040160405180910390fd5b50505b600080611cf486886000886123ca565b91935090915060009050826006811115611d1057611d106130ac565b14611d3157816006811115611d2757611d276130ac565b9350505050610d5d565b8015611d3e576003611d27565b6000876001600160a01b031663aa5af0fd6040518163ffffffff1660e01b8152600401602060405180830381865afa158015611d7e573d6000803e3d6000fd5b505050506040513d601f19601f82011682018060405250810190611da29190613093565b9050611dae8882611faf565b600098975050505050505050565b60076020528160005260406000208181548110611dd857600080fd5b6000918252602090912001546001600160a01b03169150829050565b600080546001600160a01b03163314611e1f576040516282b42960e81b815260040160405180910390fd5b6001600160a01b0384166000908152600860205260409020805460ff16611e59576040516334b04fe360e11b815260040160405180910390fd5b670d99a8cec7e20000841115611e825760405163a992d38560e01b815260040160405180910390fd5b8315801590611efe57506004805460405163fc57d4df60e01b81526001600160a01b038881169382019390935291169063fc57d4df90602401602060405180830381865afa158015611ed8573d6000803e3d6000fd5b505050506040513d601f19601f82011682018060405250810190611efc9190613093565b155b15611f1c576040516348fa9b2b60e11b815260040160405180910390fd5b6001810154604080516001600160a01b0388168152602081019290925281018590527f70483e6592cd5182d45ac970e05bc62cdcc90e9d8ef2c2dbe686cf383bcd7fc59060600160405180910390a1600181018490556000611f7e848661313a565b9050670de0b6b3a7640000811115611f9b5750670de0b6b3a76400005b6002820181905560005b9695505050505050565b600f546001600160a01b03161561202a57600f546040516001629a7f7560e01b031981526001600160a01b038481166004830152602482018490529091169063ff65808b90604401600060405180830381600087803b15801561201157600080fd5b505af1158015612025573d6000803e3d6000fd5b505050505b5050565b60008061203c8585856129b7565b9050801561204b579050610d5d565b61205485610802565b600095945050505050565b6040516361bfb47160e11b8152336004820152819060009081906001600160a01b0384169063c37f68e290602401608060405180830381865afa1580156120aa573d6000803e3d6000fd5b505050506040513d601f19601f820116820180604052508101906120ce919061314d565b509250925050806000146120f5576040516332b4215d60e01b815260040160405180910390fd5b60006121028533856129b7565b905080156121265760405163081ab1b160e31b8152600481018290526024016110f7565b6001600160a01b0384166000908152600860209081526040808320338452600481019092529091205460ff1661215e57505050505050565b3360009081526004820160209081526040808320805460ff1916905560078252808320805482518185028101850190935280835291929091908301828280156121d057602002820191906000526020600020905b81546001600160a01b031681526001909101906020018083116121b2575b5050835193945083925060009150505b8281101561223457886001600160a01b0316848281518110612204576122046130c2565b60200260200101516001600160a01b03160361222257809150612234565b8061222c816130ee565b9150506121e0565b503360009081526007602052604090208054819061225490600190613183565b81548110612264576122646130c2565b9060005260206000200160009054906101000a90046001600160a01b0316818381548110612294576122946130c2565b9060005260206000200160006101000a8154816001600160a01b0302191690836001600160a01b03160217905550808054806122d2576122d2613196565b600082815260209020810160001990810180546001600160a01b03191690550190556040517fe699a64c18b07ac5b7301aa273f36a2287239eb9501d81950672794afba29a0d9061233b908b9033906001600160a01b0392831681529116602082015260400190565b60405180910390a150505050505050505050565b6009546001600160a01b0316331480159061237557506000546001600160a01b03163314155b15612392576040516282b42960e81b815260040160405180910390fd5b6000546001600160a01b03163314801590610a395750600181151514610873576040516282b42960e81b815260040160405180910390fd5b6000806000612425604051806101400160405280600081526020016000815260200160008152602001600081526020016000815260200160008152602001600081526020016000815260200160008152602001600081525090565b6001600160a01b03881660009081526007602090815260408083208054825181850281018501909352808352919290919083018282801561248f57602002820191906000526020600020905b81546001600160a01b03168152600190910190602001808311612471575b5050505050905060005b81518110156126b95760008282815181106124b6576124b66130c2565b60209081029190910101516040516361bfb47160e11b81526001600160a01b038d811660048301529192509082169063c37f68e290602401608060405180830381865afa15801561250b573d6000803e3d6000fd5b505050506040513d601f19601f8201168201806040525081019061252f919061314d565b6080880190815260608801919091526040808801929092526001600160a01b03848116600081815260086020528490206002015460c08a0152915160e089015260048054935163fc57d4df60e01b81529081019290925291909116915063fc57d4df90602401602060405180830381865afa1580156125b2573d6000803e3d6000fd5b505050506040513d601f19601f820116820180604052508101906125d69190613093565b60a085018190526000036125f857600560008096509650965050505050610ce2565b60a084015161010085015260c084015160e08501516126259161261a91612b6f565b856101000151612b6f565b61012085018190526040850151855161263f929190612b9a565b84526101008401516060850151602086015161265c929190612b9a565b60208501526001600160a01b03808b16908216036126a6576126888461012001518a8660200151612b9a565b602085018190526101008501516126a0918a90612b9a565b60208501525b50806126b1816130ee565b915050612499565b50600e546040516332bf88c160e21b81526001600160a01b038b811660048301529091169063cafe230490602401602060405180830381865afa158015612704573d6000803e3d6000fd5b505050506040513d601f19601f820116820180604052508101906127289190613107565b156127a5576000896001600160a01b0316630fa013ac6040518163ffffffff1660e01b8152600401602060405180830381865afa15801561276d573d6000803e3d6000fd5b505050506040513d601f19601f820116820180604052508101906127919190613093565b83519091506127a190829061313a565b8352505b6020820151825111156127d457602082015182516000916127c591613183565b60009450945094505050610ce2565b600080836000015184602001516127eb9190613183565b9450945094505050610ce2565b6001600160a01b03811660009081526008602052604081206001015415801561283e57506001600160a01b0382166000908152600b602052604090205460ff1615156001145b801561093d5750816001600160a01b031663173b99046040518163ffffffff1660e01b8152600401602060405180830381865afa158015612883573d6000803e3d6000fd5b505050506040513d601f19601f820116820180604052508101906128a79190613093565b670de0b6b3a76400001492915050565b6000806128c48484612bbb565b9050610af481612bc7565b60005b600c5481101561296457816001600160a01b0316600c82815481106128f9576128f96130c2565b6000918252602090912001546001600160a01b0316036129525760405162461bcd60e51b81526020600482015260146024820152731b585c9ad95d08185b1c9958591e48185919195960621b60448201526064016110f7565b8061295c816130ee565b9150506128d2565b50600c80546001810182556000919091527fdf6966c971051c3d54ec59162606531493a51404a002842f56009d7e5cf4a8c70180546001600160a01b0319166001600160a01b0392909216919091179055565b6001600160a01b03831660009081526008602052604081205460ff166129de576004610d49565b6001600160a01b038085166000908152600860209081526040808320938716835260049093019052205460ff16612a16576000610d49565b600080612a2685878660006123ca565b91935090915060009050826006811115612a4257612a426130ac565b14612a6257816006811115612a5957612a596130ac565b92505050610d5d565b8015612a6f576003612a59565b6000611fa5565b6001600160a01b0382166000908152600860205260409020805460ff16612ab0576040516334b04fe360e11b815260040160405180910390fd5b6001600160a01b038216600090815260048201602052604090205460ff161515600103612adc57505050565b6001600160a01b03828116600081815260048401602090815260408083208054600160ff199091168117909155600783528184208054918201815584529282902090920180546001600160a01b031916948816948517905581519384528301919091527f3ab23ab0d51cccc0c3085aec51f99228625aa1a922b3a8ca89a26b0f2027a1a5910160405180910390a1505050565b6000670de0b6b3a7640000612b848484612bdb565b610d5d91906131ac565b6000610d5d828461313a565b600080612ba78585612bbb565b905061107c612bb582612bc7565b84612b8e565b6000610d5d8383612bdb565b600061093d670de0b6b3a7640000836131ac565b6000610d5d82846131ce565b6001600160a01b038116811461087357600080fd5b8035612c0781612be7565b919050565b600060208284031215612c1e57600080fd5b8135610d5d81612be7565b801515811461087357600080fd5b60008060408385031215612c4a57600080fd5b8235612c5581612be7565b91506020830135612c6581612c29565b809150509250929050565b60008060008060808587031215612c8657600080fd5b8435612c9181612be7565b93506020850135612ca181612be7565b92506040850135612cb181612be7565b9396929550929360600135925050565b600060208284031215612cd357600080fd5b8135610d5d81612c29565b600060208284031215612cf057600080fd5b5035919050565b60008060008060808587031215612d0d57600080fd5b8435612d1881612be7565b93506020850135612d2881612be7565b93969395505050506040820135916060013590565b600080600060608486031215612d5257600080fd5b8335612d5d81612be7565b92506020840135612d6d81612be7565b929592945050506040919091013590565b600080600080600060a08688031215612d9657600080fd5b8535612da181612be7565b94506020860135612db181612be7565b93506040860135612dc181612be7565b92506060860135612dd181612be7565b949793965091946080013592915050565b60008083601f840112612df457600080fd5b50813567ffffffffffffffff811115612e0c57600080fd5b6020830191508360208260051b8501011115612e2757600080fd5b9250929050565b60008060008060408587031215612e4457600080fd5b843567ffffffffffffffff80821115612e5c57600080fd5b612e6888838901612de2565b90965094506020870135915080821115612e8157600080fd5b50612e8e87828801612de2565b95989497509550505050565b60008060408385031215612ead57600080fd5b8235612eb881612be7565b91506020830135612c6581612be7565b6020808252825182820181905260009190848201906040850190845b81811015612f095783516001600160a01b031683529284019291840191600101612ee4565b50909695505050505050565b634e487b7160e01b600052604160045260246000fd5b60006020808385031215612f3e57600080fd5b823567ffffffffffffffff80821115612f5657600080fd5b818501915085601f830112612f6a57600080fd5b813581811115612f7c57612f7c612f15565b8060051b604051601f19603f83011681018181108582111715612fa157612fa1612f15565b604052918252848201925083810185019188831115612fbf57600080fd5b938501935b82851015612fe457612fd585612bfc565b84529385019392850192612fc4565b98975050505050505050565b6000806040838503121561300357600080fd5b823591506020830135612c6581612be7565b6000806040838503121561302857600080fd5b823561303381612be7565b946020939093013593505050565b60008060006060848603121561305657600080fd5b833561306181612be7565b95602085013595506040909401359392505050565b60006020828403121561308857600080fd5b8151610d5d81612be7565b6000602082840312156130a557600080fd5b5051919050565b634e487b7160e01b600052602160045260246000fd5b634e487b7160e01b600052603260045260246000fd5b634e487b7160e01b600052601160045260246000fd5b600060018201613100576131006130d8565b5060010190565b60006020828403121561311957600080fd5b8151610d5d81612c29565b634e487b7160e01b600052600160045260246000fd5b8082018082111561093d5761093d6130d8565b6000806000806080858703121561316357600080fd5b505082516020840151604085015160609095015191969095509092509050565b8181038181111561093d5761093d6130d8565b634e487b7160e01b600052603160045260246000fd5b6000826131c957634e487b7160e01b600052601260045260246000fd5b500490565b808202811582820484141761093d5761093d6130d856fea26469706673582212207b870857c9056c822d596fb3187b96056ccf6352c594c040384ad44e71713ef864736f6c63430008110033",
  "devdoc": {
    "author": "Compound",
    "kind": "dev",
    "methods": {
      "_setCloseFactor(uint256)": {
        "details": "Admin function to set closeFactor",
        "params": {
          "newCloseFactorMantissa": "New close factor, scaled by 1e18"
        },
        "returns": {
          "_0": "uint 0=success, otherwise a failure"
        }
      },
      "_setCollateralFactor(address,uint256,uint256)": {
        "details": "Admin function to set per-market collateralFactor",
        "params": {
          "cToken": "The market to set the factor on",
          "newCollateralFactorMantissa": "The new collateral factor, scaled by 1e18"
        },
        "returns": {
          "_0": "uint 0=success, otherwise a failure. (See ErrorReporter for details)"
        }
      },
      "_setLiquidationIncentive(uint256,address)": {
        "details": "Admin function to set liquidationIncentive",
        "params": {
          "newLiquidationIncentiveMantissa": "New liquidationIncentive scaled by 1e18"
        },
        "returns": {
          "_0": "uint 0=success, otherwise a failure. (See ErrorReporter for details)"
        }
      },
      "_setMarketBorrowCaps(address[],uint256[])": {
        "details": "Admin or borrowCapGuardian function to set the borrow caps. A borrow cap of 0 corresponds to unlimited borrowing.",
        "params": {
          "cTokens": "The addresses of the markets (tokens) to change the borrow caps for",
          "newBorrowCaps": "The new borrow cap values in underlying to be set. A value of 0 corresponds to unlimited borrowing."
        }
      },
      "_setPauseGuardian(address)": {
        "params": {
          "newPauseGuardian": "The address of the new Pause Guardian"
        }
      },
      "_setPriceOracle(address)": {
        "details": "Admin function to set a new price oracle",
        "returns": {
          "_0": "uint 0=success, otherwise a failure (see ErrorReporter.sol for details)"
        }
      },
      "_supportMarket(address)": {
        "details": "Admin function to set isListed and add support for the market",
        "params": {
          "cToken": "The address of the market (token) to list"
        },
        "returns": {
          "_0": "uint 0=success, otherwise a failure. (See enum Error for details)"
        }
      },
      "borrowAllowed(address,address,uint256)": {
        "params": {
          "borrowAmount": "The amount of underlying the account would borrow",
          "borrower": "The account which would borrow the asset",
          "cToken": "The market to verify the borrow against"
        },
        "returns": {
          "_0": "0 if the borrow is allowed, otherwise a semi-opaque error code (See ErrorReporter.sol)"
        }
      },
      "checkMembership(address,address)": {
        "params": {
          "account": "The address of the account to check",
          "cToken": "The cToken to check"
        },
        "returns": {
          "_0": "True if the account is in the asset, otherwise false."
        }
      },
      "enterMarkets(address[])": {
        "params": {
          "cTokens": "The list of addresses of the cToken markets to be enabled"
        }
      },
      "exitMarket(address)": {
        "details": "Sender must not have an outstanding borrow balance in the asset,  or be providing necessary collateral for an outstanding borrow.",
        "params": {
          "cTokenAddress": "The address of the asset to be removed"
        }
      },
      "getAccountLiquidity(address)": {
        "returns": {
          "_0": "(possible error code (semi-opaque), account liquidity in excess of collateral requirements,          account shortfall below collateral requirements)"
        }
      },
      "getAllMarkets()": {
        "details": "The automatic getter may be used to access an individual market.",
        "returns": {
          "_0": "The list of market addresses"
        }
      },
      "getAssetsIn(address)": {
        "params": {
          "account": "The address of the account to pull assets for"
        },
        "returns": {
          "_0": "A dynamic list with the assets the account has entered"
        }
      },
      "getHypotheticalAccountLiquidity(address,address,uint256,uint256)": {
        "params": {
          "account": "The account to determine liquidity for",
          "borrowAmount": "The amount of underlying to hypothetically borrow",
          "cTokenModify": "The market to hypothetically redeem/borrow in",
          "redeemTokens": "The number of tokens to hypothetically redeem"
        },
        "returns": {
          "_0": "(possible error code (semi-opaque), hypothetical account liquidity in excess of collateral requirements,          hypothetical account shortfall below collateral requirements)"
        }
      },
      "liquidateBorrowAllowed(address,address,address,address,uint256)": {
        "params": {
          "borrower": "The address of the borrower",
          "cTokenBorrowed": "Asset which was borrowed by the borrower",
          "cTokenCollateral": "Asset which was used as collateral and will be seized",
          "liquidator": "The address repaying the borrow and seizing the collateral",
          "repayAmount": "The amount of underlying being repaid"
        }
      },
      "liquidateCalculateSeizeTokens(address,address,uint256)": {
        "details": "Used in liquidation (called in cToken.liquidateBorrowFresh)",
        "params": {
          "actualRepayAmount": "The amount of cTokenBorrowed underlying to convert into cTokenCollateral tokens",
          "cTokenBorrowed": "The address of the borrowed cToken",
          "cTokenCollateral": "The address of the collateral cToken"
        },
        "returns": {
          "_0": "(errorCode, number of cTokenCollateral tokens to be seized in a liquidation)"
        }
      },
      "mintAllowed(address,address,uint256)": {
        "params": {
          "cToken": "The market to verify the mint against"
        },
        "returns": {
          "_0": "0 if the mint is allowed, otherwise a semi-opaque error code (See ErrorReporter.sol)"
        }
      },
      "redeemAllowed(address,address,uint256)": {
        "params": {
          "cToken": "The market to verify the redeem against",
          "redeemTokens": "The number of cTokens to exchange for the underlying asset in the market",
          "redeemer": "The account which would redeem the tokens"
        },
        "returns": {
          "_0": "0 if the redeem is allowed, otherwise a semi-opaque error code (See ErrorReporter.sol)"
        }
      },
      "redeemVerify(address,address,uint256,uint256)": {
        "params": {
          "cToken": "Asset being redeemed",
          "redeemAmount": "The amount of the underlying asset being redeemed",
          "redeemTokens": "The number of tokens being redeemed",
          "redeemer": "The address redeeming the tokens"
        }
      },
      "repayBorrowAllowed(address,address,address,uint256)": {
        "params": {
          "borrower": "The account which would borrowed the asset",
          "cToken": "The market to verify the repay against",
          "payer": "The account which would repay the asset",
          "repayAmount": "The amount of the underlying asset the account would repay"
        },
        "returns": {
          "_0": "0 if the repay is allowed, otherwise a semi-opaque error code (See ErrorReporter.sol)"
        }
      },
      "seizeAllowed(address,address,address,address,uint256)": {
        "params": {
          "borrower": "The address of the borrower",
          "cTokenBorrowed": "Asset which was borrowed by the borrower",
          "cTokenCollateral": "Asset which was used as collateral and will be seized",
          "liquidator": "The address repaying the borrow and seizing the collateral",
          "seizeTokens": "The number of collateral tokens to seize"
        }
      },
      "transferAllowed(address,address,address,uint256)": {
        "params": {
          "cToken": "The market to verify the transfer against",
          "dst": "The account which receives the tokens",
          "src": "The account which sources the tokens",
          "transferTokens": "The number of cTokens to transfer"
        },
        "returns": {
          "_0": "0 if the transfer is allowed, otherwise a semi-opaque error code (See ErrorReporter.sol)"
        }
      },
      "updateCompBorrowIndex(address,uint256)": {
        "details": "Index is a cumulative sum of the COMP per cToken accrued.",
        "params": {
          "cToken": "The market whose borrow index to update"
        }
      },
      "updateCompSupplyIndex(address)": {
        "details": "Index is a cumulative sum of the COMP per cToken accrued.",
        "params": {
          "cToken": "The market whose supply index to update"
        }
      }
    },
    "title": "Compound's Comptroller Contract",
    "version": 1
  },
  "userdoc": {
    "events": {
      "ActionPaused(address,string,bool)": {
        "notice": "Emitted when an action is paused on a market"
      },
      "ActionPausedGlobally(string,bool)": {
        "notice": "Emitted when an action is paused globally"
      },
      "MarketEntered(address,address)": {
        "notice": "Emitted when an account enters a market"
      },
      "MarketExited(address,address)": {
        "notice": "Emitted when an account exits a market"
      },
      "MarketListed(address)": {
        "notice": "Emitted when an admin supports a market"
      },
      "NewBorrowCap(address,uint256)": {
        "notice": "Emitted when borrow cap for a cToken is changed"
      },
      "NewCloseFactor(uint256,uint256)": {
        "notice": "Emitted when close factor is changed by admin"
      },
      "NewCollateralFactor(address,uint256,uint256)": {
        "notice": "Emitted when a collateral factor is changed by admin"
      },
      "NewLiquidationIncentive(uint256,uint256)": {
        "notice": "Emitted when liquidation incentive is changed by admin"
      },
      "NewMarketLiquidationIncentive(address,uint256,uint256)": {
        "notice": "Emitted when liquidation incentive is changed by admin"
      },
      "NewPauseGuardian(address,address)": {
        "notice": "Emitted when pause guardian is changed"
      },
      "NewPriceOracle(address,address)": {
        "notice": "Emitted when price oracle is changed"
      }
    },
    "kind": "user",
    "methods": {
      "_setCloseFactor(uint256)": {
        "notice": "Sets the closeFactor used when liquidating borrows"
      },
      "_setCollateralFactor(address,uint256,uint256)": {
        "notice": "Sets the collateralFactor for a market"
      },
      "_setLiquidationIncentive(uint256,address)": {
        "notice": "Sets liquidationIncentive"
      },
      "_setMarketBorrowCaps(address[],uint256[])": {
        "notice": "Set the given borrow caps for the given cToken markets. Borrowing that brings total borrows to or above borrow cap will revert."
      },
      "_setPauseGuardian(address)": {
        "notice": "Admin function to change the Pause Guardian"
      },
      "_setPriceOracle(address)": {
        "notice": "Sets a new price oracle for the comptroller"
      },
      "_supportMarket(address)": {
        "notice": "Add the market to the markets mapping and set it as listed"
      },
      "accountAssets(address,uint256)": {
        "notice": "Per-account mapping of \"assets you are in\", capped by maxAssets"
      },
      "admin()": {
        "notice": "Administrator for this contract"
      },
      "allMarkets(uint256)": {
        "notice": "A list of all markets"
      },
      "borrowAllowed(address,address,uint256)": {
        "notice": "Checks if the account should be allowed to borrow the underlying asset of the given market"
      },
      "checkMembership(address,address)": {
        "notice": "Returns whether the given account is entered in the given asset"
      },
      "closeFactorMantissa()": {
        "notice": "Multiplier used to calculate the maximum repayAmount when liquidating a borrow"
      },
      "comptrollerImplementation()": {
        "notice": "Active brains of Unitroller"
      },
      "enterMarkets(address[])": {
        "notice": "Add assets to be included in account liquidity calculation"
      },
      "exitMarket(address)": {
        "notice": "Removes asset from sender's account liquidity calculation"
      },
      "getAccountLiquidity(address)": {
        "notice": "Determine the current account liquidity wrt collateral requirements"
      },
      "getAllMarkets()": {
        "notice": "Return all of the markets"
      },
      "getAssetsIn(address)": {
        "notice": "Returns the assets an account has entered"
      },
      "getHypotheticalAccountLiquidity(address,address,uint256,uint256)": {
        "notice": "Determine what the account liquidity would be if the given amounts were redeemed/borrowed"
      },
      "isComptroller()": {
        "notice": "Indicator that this is a Comptroller contract (for inspection)"
      },
      "liquidateBorrowAllowed(address,address,address,address,uint256)": {
        "notice": "Checks if the liquidation should be allowed to occur"
      },
      "liquidateCalculateSeizeTokens(address,address,uint256)": {
        "notice": "Calculate number of tokens of collateral asset to seize given an underlying amount"
      },
      "liquidationIncentiveMantissa()": {
        "notice": "Multiplier representing the discount on collateral that a liquidator receives"
      },
      "markets(address)": {
        "notice": "Official mapping of cTokens -> Market metadata"
      },
      "mintAllowed(address,address,uint256)": {
        "notice": "Checks if the account should be allowed to mint tokens in the given market"
      },
      "oracle()": {
        "notice": "Oracle which gives the price of any given asset"
      },
      "pauseGuardian()": {
        "notice": "The Pause Guardian can pause certain actions as a safety mechanism.  Actions which allow users to remove their own assets cannot be paused.  Liquidation / seizing / transfer can only be paused globally, not by market."
      },
      "pendingAdmin()": {
        "notice": "Pending administrator for this contract"
      },
      "pendingComptrollerImplementation()": {
        "notice": "Pending brains of Unitroller"
      },
      "redeemAllowed(address,address,uint256)": {
        "notice": "Checks if the account should be allowed to redeem tokens in the given market"
      },
      "redeemVerify(address,address,uint256,uint256)": {
        "notice": "Validates redeem and reverts on rejection. May emit logs."
      },
      "repayBorrowAllowed(address,address,address,uint256)": {
        "notice": "Checks if the account should be allowed to repay a borrow in the given market"
      },
      "seizeAllowed(address,address,address,address,uint256)": {
        "notice": "Checks if the seizing of assets should be allowed to occur"
      },
      "transferAllowed(address,address,address,uint256)": {
        "notice": "Checks if the account should be allowed to transfer tokens in the given market"
      },
      "updateCompBorrowIndex(address,uint256)": {
        "notice": "Accrue COMP to the market by updating the borrow index"
      },
      "updateCompSupplyIndex(address)": {
        "notice": "Accrue COMP to the market by updating the supply index"
      }
    },
    "version": 1
  },
  "storageLayout": {
    "storage": [
      {
        "astId": 4894,
        "contract": "contracts/Comptroller.sol:Comptroller",
        "label": "admin",
        "offset": 0,
        "slot": "0",
        "type": "t_address"
      },
      {
        "astId": 4897,
        "contract": "contracts/Comptroller.sol:Comptroller",
        "label": "pendingAdmin",
        "offset": 0,
        "slot": "1",
        "type": "t_address"
      },
      {
        "astId": 4900,
        "contract": "contracts/Comptroller.sol:Comptroller",
        "label": "comptrollerImplementation",
        "offset": 0,
        "slot": "2",
        "type": "t_address"
      },
      {
        "astId": 4903,
        "contract": "contracts/Comptroller.sol:Comptroller",
        "label": "pendingComptrollerImplementation",
        "offset": 0,
        "slot": "3",
        "type": "t_address"
      },
      {
        "astId": 4910,
        "contract": "contracts/Comptroller.sol:Comptroller",
        "label": "oracle",
        "offset": 0,
        "slot": "4",
        "type": "t_contract(PriceOracle)6739"
      },
      {
        "astId": 4913,
        "contract": "contracts/Comptroller.sol:Comptroller",
        "label": "closeFactorMantissa",
        "offset": 0,
        "slot": "5",
        "type": "t_uint256"
      },
      {
        "astId": 4916,
        "contract": "contracts/Comptroller.sol:Comptroller",
        "label": "liquidationIncentiveMantissa",
        "offset": 0,
        "slot": "6",
        "type": "t_uint256"
      },
      {
        "astId": 4923,
        "contract": "contracts/Comptroller.sol:Comptroller",
        "label": "accountAssets",
        "offset": 0,
        "slot": "7",
        "type": "t_mapping(t_address,t_array(t_contract(CToken)2451)dyn_storage)"
      },
      {
        "astId": 4942,
        "contract": "contracts/Comptroller.sol:Comptroller",
        "label": "markets",
        "offset": 0,
        "slot": "8",
        "type": "t_mapping(t_address,t_struct(Market)4936_storage)"
      },
      {
        "astId": 4945,
        "contract": "contracts/Comptroller.sol:Comptroller",
        "label": "pauseGuardian",
        "offset": 0,
        "slot": "9",
        "type": "t_address"
      },
      {
        "astId": 4947,
        "contract": "contracts/Comptroller.sol:Comptroller",
        "label": "transferGuardianPaused",
        "offset": 20,
        "slot": "9",
        "type": "t_bool"
      },
      {
        "astId": 4949,
        "contract": "contracts/Comptroller.sol:Comptroller",
        "label": "seizeGuardianPaused",
        "offset": 21,
        "slot": "9",
        "type": "t_bool"
      },
      {
        "astId": 4953,
        "contract": "contracts/Comptroller.sol:Comptroller",
        "label": "mintGuardianPaused",
        "offset": 0,
        "slot": "10",
        "type": "t_mapping(t_address,t_bool)"
      },
      {
        "astId": 4957,
        "contract": "contracts/Comptroller.sol:Comptroller",
        "label": "borrowGuardianPaused",
        "offset": 0,
        "slot": "11",
        "type": "t_mapping(t_address,t_bool)"
      },
      {
        "astId": 4962,
        "contract": "contracts/Comptroller.sol:Comptroller",
        "label": "allMarkets",
        "offset": 0,
        "slot": "12",
        "type": "t_array(t_contract(CToken)2451)dyn_storage"
      },
      {
        "astId": 4966,
        "contract": "contracts/Comptroller.sol:Comptroller",
        "label": "borrowCaps",
        "offset": 0,
        "slot": "13",
        "type": "t_mapping(t_address,t_uint256)"
      },
      {
        "astId": 4969,
        "contract": "contracts/Comptroller.sol:Comptroller",
        "label": "smartAccountFactory",
        "offset": 0,
        "slot": "14",
        "type": "t_contract(ISmartAccountFactory)6688"
      },
      {
        "astId": 4972,
        "contract": "contracts/Comptroller.sol:Comptroller",
        "label": "rewardsPool",
        "offset": 0,
        "slot": "15",
        "type": "t_contract(RewardsPool)7846"
      }
    ],
    "types": {
      "t_address": {
        "encoding": "inplace",
        "label": "address",
        "numberOfBytes": "20"
      },
      "t_array(t_contract(CToken)2451)dyn_storage": {
        "base": "t_contract(CToken)2451",
        "encoding": "dynamic_array",
        "label": "contract CToken[]",
        "numberOfBytes": "32"
      },
      "t_bool": {
        "encoding": "inplace",
        "label": "bool",
        "numberOfBytes": "1"
      },
      "t_contract(CToken)2451": {
        "encoding": "inplace",
        "label": "contract CToken",
        "numberOfBytes": "20"
      },
      "t_contract(ISmartAccountFactory)6688": {
        "encoding": "inplace",
        "label": "contract ISmartAccountFactory",
        "numberOfBytes": "20"
      },
      "t_contract(PriceOracle)6739": {
        "encoding": "inplace",
        "label": "contract PriceOracle",
        "numberOfBytes": "20"
      },
      "t_contract(RewardsPool)7846": {
        "encoding": "inplace",
        "label": "contract RewardsPool",
        "numberOfBytes": "20"
      },
      "t_mapping(t_address,t_array(t_contract(CToken)2451)dyn_storage)": {
        "encoding": "mapping",
        "key": "t_address",
        "label": "mapping(address => contract CToken[])",
        "numberOfBytes": "32",
        "value": "t_array(t_contract(CToken)2451)dyn_storage"
      },
      "t_mapping(t_address,t_bool)": {
        "encoding": "mapping",
        "key": "t_address",
        "label": "mapping(address => bool)",
        "numberOfBytes": "32",
        "value": "t_bool"
      },
      "t_mapping(t_address,t_struct(Market)4936_storage)": {
        "encoding": "mapping",
        "key": "t_address",
        "label": "mapping(address => struct ComptrollerStorage.Market)",
        "numberOfBytes": "32",
        "value": "t_struct(Market)4936_storage"
      },
      "t_mapping(t_address,t_uint256)": {
        "encoding": "mapping",
        "key": "t_address",
        "label": "mapping(address => uint256)",
        "numberOfBytes": "32",
        "value": "t_uint256"
      },
      "t_struct(Market)4936_storage": {
        "encoding": "inplace",
        "label": "struct ComptrollerStorage.Market",
        "members": [
          {
            "astId": 4925,
            "contract": "contracts/Comptroller.sol:Comptroller",
            "label": "isListed",
            "offset": 0,
            "slot": "0",
            "type": "t_bool"
          },
          {
            "astId": 4927,
            "contract": "contracts/Comptroller.sol:Comptroller",
            "label": "collateralFactorMantissa",
            "offset": 0,
            "slot": "1",
            "type": "t_uint256"
          },
          {
            "astId": 4929,
            "contract": "contracts/Comptroller.sol:Comptroller",
            "label": "liquidateCollateralFactorMantissa",
            "offset": 0,
            "slot": "2",
            "type": "t_uint256"
          },
          {
            "astId": 4931,
            "contract": "contracts/Comptroller.sol:Comptroller",
            "label": "liquidationIncentiveMantissa",
            "offset": 0,
            "slot": "3",
            "type": "t_uint256"
          },
          {
            "astId": 4935,
            "contract": "contracts/Comptroller.sol:Comptroller",
            "label": "accountMembership",
            "offset": 0,
            "slot": "4",
            "type": "t_mapping(t_address,t_bool)"
          }
        ],
        "numberOfBytes": "160"
      },
      "t_uint256": {
        "encoding": "inplace",
        "label": "uint256",
        "numberOfBytes": "32"
      }
    }
  }
}