{
  "address": "0xde6De2d84d0772690a8d850c7E2b6454A3c8c9cB",
  "abi": [
    {
      "inputs": [],
      "stateMutability": "nonpayable",
      "type": "constructor"
    },
    {
      "inputs": [],
      "name": "AcceptAdminPendingAdminCheck",
      "type": "error"
    },
    {
      "inputs": [
        {
          "internalType": "uint256",
          "name": "actualAddAmount",
          "type": "uint256"
        }
      ],
      "name": "AddReservesFactorFreshCheck",
      "type": "error"
    },
    {
      "inputs": [],
      "name": "BorrowCashNotAvailable",
      "type": "error"
    },
    {
      "inputs": [
        {
          "internalType": "uint256",
          "name": "errorCode",
          "type": "uint256"
        }
      ],
      "name": "BorrowComptrollerRejection",
      "type": "error"
    },
    {
      "inputs": [],
      "name": "BorrowFreshnessCheck",
      "type": "error"
    },
    {
      "inputs": [],
      "name": "BorrowRateTooHigh",
      "type": "error"
    },
    {
      "inputs": [],
      "name": "InitialExchangeRateCannotBeZero",
      "type": "error"
    },
    {
      "inputs": [],
      "name": "InvalidContractAddress",
      "type": "error"
    },
    {
      "inputs": [
        {
          "internalType": "uint256",
          "name": "errorCode",
          "type": "uint256"
        }
      ],
      "name": "LiquidateAccrueBorrowInterestFailed",
      "type": "error"
    },
    {
      "inputs": [
        {
          "internalType": "uint256",
          "name": "errorCode",
          "type": "uint256"
        }
      ],
      "name": "LiquidateAccrueCollateralInterestFailed",
      "type": "error"
    },
    {
      "inputs": [],
      "name": "LiquidateCloseAmountIsUintMax",
      "type": "error"
    },
    {
      "inputs": [],
      "name": "LiquidateCloseAmountIsZero",
      "type": "error"
    },
    {
      "inputs": [],
      "name": "LiquidateCollateralFreshnessCheck",
      "type": "error"
    },
    {
      "inputs": [
        {
          "internalType": "uint256",
          "name": "errorCode",
          "type": "uint256"
        }
      ],
      "name": "LiquidateComptrollerRejection",
      "type": "error"
    },
    {
      "inputs": [],
      "name": "LiquidateFreshnessCheck",
      "type": "error"
    },
    {
      "inputs": [],
      "name": "LiquidateLiquidatorIsBorrower",
      "type": "error"
    },
    {
      "inputs": [
        {
          "internalType": "uint256",
          "name": "errorCode",
          "type": "uint256"
        }
      ],
      "name": "LiquidateRepayBorrowFreshFailed",
      "type": "error"
    },
    {
      "inputs": [
        {
          "internalType": "uint256",
          "name": "errorCode",
          "type": "uint256"
        }
      ],
      "name": "LiquidateSeizeComptrollerRejection",
      "type": "error"
    },
    {
      "inputs": [],
      "name": "LiquidateSeizeLiquidatorIsBorrower",
      "type": "error"
    },
    {
      "inputs": [],
      "name": "LiquidateSizeTooMuch",
      "type": "error"
    },
    {
      "inputs": [],
      "name": "MarketAlreadyInitialized",
      "type": "error"
    },
    {
      "inputs": [
        {
          "internalType": "uint256",
          "name": "errorCode",
          "type": "uint256"
        }
      ],
      "name": "MintComptrollerRejection",
      "type": "error"
    },
    {
      "inputs": [],
      "name": "MintFreshnessCheck",
      "type": "error"
    },
    {
      "inputs": [],
      "name": "NotComptroller",
      "type": "error"
    },
    {
      "inputs": [
        {
          "internalType": "uint256",
          "name": "errorCode",
          "type": "uint256"
        }
      ],
      "name": "RedeemComptrollerRejection",
      "type": "error"
    },
    {
      "inputs": [],
      "name": "RedeemFreshnessCheck",
      "type": "error"
    },
    {
      "inputs": [],
      "name": "RedeemTokensInOrRedeemAmountInShouldBeZero",
      "type": "error"
    },
    {
      "inputs": [],
      "name": "RedeemTransferOutNotPossible",
      "type": "error"
    },
    {
      "inputs": [],
      "name": "ReduceReservesAdminCheck",
      "type": "error"
    },
    {
      "inputs": [],
      "name": "ReduceReservesCashNotAvailable",
      "type": "error"
    },
    {
      "inputs": [],
      "name": "ReduceReservesCashValidation",
      "type": "error"
    },
    {
      "inputs": [],
      "name": "ReduceReservesFreshCheck",
      "type": "error"
    },
    {
      "inputs": [
        {
          "internalType": "uint256",
          "name": "errorCode",
          "type": "uint256"
        }
      ],
      "name": "RepayBorrowComptrollerRejection",
      "type": "error"
    },
    {
      "inputs": [],
      "name": "RepayBorrowFreshnessCheck",
      "type": "error"
    },
    {
      "inputs": [],
      "name": "SetComptrollerOwnerCheck",
      "type": "error"
    },
    {
      "inputs": [],
      "name": "SetInterestRateModelFreshCheck",
      "type": "error"
    },
    {
      "inputs": [],
      "name": "SetInterestRateModelOwnerCheck",
      "type": "error"
    },
    {
      "inputs": [],
      "name": "SetPendingAdminOwnerCheck",
      "type": "error"
    },
    {
      "inputs": [],
      "name": "SetReserveFactorAdminCheck",
      "type": "error"
    },
    {
      "inputs": [],
      "name": "SetReserveFactorBoundsCheck",
      "type": "error"
    },
    {
      "inputs": [],
      "name": "SetReserveFactorFreshCheck",
      "type": "error"
    },
    {
      "inputs": [
        {
          "internalType": "uint256",
          "name": "errorCode",
          "type": "uint256"
        }
      ],
      "name": "TransferComptrollerRejection",
      "type": "error"
    },
    {
      "inputs": [],
      "name": "TransferNotAllowed",
      "type": "error"
    },
    {
      "inputs": [],
      "name": "TransferNotEnough",
      "type": "error"
    },
    {
      "inputs": [],
      "name": "TransferTooMuch",
      "type": "error"
    },
    {
      "inputs": [],
      "name": "Unauthorized",
      "type": "error"
    },
    {
      "anonymous": false,
      "inputs": [
        {
          "indexed": false,
          "internalType": "uint256",
          "name": "cashPrior",
          "type": "uint256"
        },
        {
          "indexed": false,
          "internalType": "uint256",
          "name": "interestAccumulated",
          "type": "uint256"
        },
        {
          "indexed": false,
          "internalType": "uint256",
          "name": "borrowIndex",
          "type": "uint256"
        },
        {
          "indexed": false,
          "internalType": "uint256",
          "name": "totalBorrows",
          "type": "uint256"
        }
      ],
      "name": "AccrueInterest",
      "type": "event"
    },
    {
      "anonymous": false,
      "inputs": [
        {
          "indexed": true,
          "internalType": "address",
          "name": "owner",
          "type": "address"
        },
        {
          "indexed": true,
          "internalType": "address",
          "name": "spender",
          "type": "address"
        },
        {
          "indexed": false,
          "internalType": "uint256",
          "name": "amount",
          "type": "uint256"
        }
      ],
      "name": "Approval",
      "type": "event"
    },
    {
      "anonymous": false,
      "inputs": [
        {
          "indexed": false,
          "internalType": "address",
          "name": "borrower",
          "type": "address"
        },
        {
          "indexed": false,
          "internalType": "uint256",
          "name": "borrowAmount",
          "type": "uint256"
        },
        {
          "indexed": false,
          "internalType": "uint256",
          "name": "accountBorrows",
          "type": "uint256"
        },
        {
          "indexed": false,
          "internalType": "uint256",
          "name": "totalBorrows",
          "type": "uint256"
        }
      ],
      "name": "Borrow",
      "type": "event"
    },
    {
      "anonymous": false,
      "inputs": [
        {
          "indexed": false,
          "internalType": "address",
          "name": "liquidator",
          "type": "address"
        },
        {
          "indexed": false,
          "internalType": "address",
          "name": "borrower",
          "type": "address"
        },
        {
          "indexed": false,
          "internalType": "uint256",
          "name": "repayAmount",
          "type": "uint256"
        },
        {
          "indexed": false,
          "internalType": "address",
          "name": "cTokenCollateral",
          "type": "address"
        },
        {
          "indexed": false,
          "internalType": "uint256",
          "name": "seizeTokens",
          "type": "uint256"
        }
      ],
      "name": "LiquidateBorrow",
      "type": "event"
    },
    {
      "anonymous": false,
      "inputs": [
        {
          "indexed": false,
          "internalType": "address",
          "name": "minter",
          "type": "address"
        },
        {
          "indexed": false,
          "internalType": "uint256",
          "name": "mintAmount",
          "type": "uint256"
        },
        {
          "indexed": false,
          "internalType": "uint256",
          "name": "mintTokens",
          "type": "uint256"
        }
      ],
      "name": "Mint",
      "type": "event"
    },
    {
      "anonymous": false,
      "inputs": [
        {
          "indexed": false,
          "internalType": "address",
          "name": "oldAdmin",
          "type": "address"
        },
        {
          "indexed": false,
          "internalType": "address",
          "name": "newAdmin",
          "type": "address"
        }
      ],
      "name": "NewAdmin",
      "type": "event"
    },
    {
      "anonymous": false,
      "inputs": [
        {
          "indexed": false,
          "internalType": "contract ComptrollerInterface",
          "name": "oldComptroller",
          "type": "address"
        },
        {
          "indexed": false,
          "internalType": "contract ComptrollerInterface",
          "name": "newComptroller",
          "type": "address"
        }
      ],
      "name": "NewComptroller",
      "type": "event"
    },
    {
      "anonymous": false,
      "inputs": [
        {
          "indexed": false,
          "internalType": "contract InterestRateModel",
          "name": "oldInterestRateModel",
          "type": "address"
        },
        {
          "indexed": false,
          "internalType": "contract InterestRateModel",
          "name": "newInterestRateModel",
          "type": "address"
        }
      ],
      "name": "NewMarketInterestRateModel",
      "type": "event"
    },
    {
      "anonymous": false,
      "inputs": [
        {
          "indexed": false,
          "internalType": "address",
          "name": "oldPendingAdmin",
          "type": "address"
        },
        {
          "indexed": false,
          "internalType": "address",
          "name": "newPendingAdmin",
          "type": "address"
        }
      ],
      "name": "NewPendingAdmin",
      "type": "event"
    },
    {
      "anonymous": false,
      "inputs": [
        {
          "indexed": false,
          "internalType": "uint256",
          "name": "oldReserveFactorMantissa",
          "type": "uint256"
        },
        {
          "indexed": false,
          "internalType": "uint256",
          "name": "newReserveFactorMantissa",
          "type": "uint256"
        }
      ],
      "name": "NewReserveFactor",
      "type": "event"
    },
    {
      "anonymous": false,
      "inputs": [
        {
          "indexed": false,
          "internalType": "address",
          "name": "redeemer",
          "type": "address"
        },
        {
          "indexed": false,
          "internalType": "uint256",
          "name": "redeemAmount",
          "type": "uint256"
        },
        {
          "indexed": false,
          "internalType": "uint256",
          "name": "redeemTokens",
          "type": "uint256"
        }
      ],
      "name": "Redeem",
      "type": "event"
    },
    {
      "anonymous": false,
      "inputs": [
        {
          "indexed": false,
          "internalType": "address",
          "name": "payer",
          "type": "address"
        },
        {
          "indexed": false,
          "internalType": "address",
          "name": "borrower",
          "type": "address"
        },
        {
          "indexed": false,
          "internalType": "uint256",
          "name": "repayAmount",
          "type": "uint256"
        },
        {
          "indexed": false,
          "internalType": "uint256",
          "name": "accountBorrows",
          "type": "uint256"
        },
        {
          "indexed": false,
          "internalType": "uint256",
          "name": "totalBorrows",
          "type": "uint256"
        }
      ],
      "name": "RepayBorrow",
      "type": "event"
    },
    {
      "anonymous": false,
      "inputs": [
        {
          "indexed": false,
          "internalType": "address",
          "name": "benefactor",
          "type": "address"
        },
        {
          "indexed": false,
          "internalType": "uint256",
          "name": "addAmount",
          "type": "uint256"
        },
        {
          "indexed": false,
          "internalType": "uint256",
          "name": "newTotalReserves",
          "type": "uint256"
        }
      ],
      "name": "ReservesAdded",
      "type": "event"
    },
    {
      "anonymous": false,
      "inputs": [
        {
          "indexed": false,
          "internalType": "address",
          "name": "admin",
          "type": "address"
        },
        {
          "indexed": false,
          "internalType": "uint256",
          "name": "reduceAmount",
          "type": "uint256"
        },
        {
          "indexed": false,
          "internalType": "uint256",
          "name": "newTotalReserves",
          "type": "uint256"
        }
      ],
      "name": "ReservesReduced",
      "type": "event"
    },
    {
      "anonymous": false,
      "inputs": [
        {
          "indexed": true,
          "internalType": "address",
          "name": "from",
          "type": "address"
        },
        {
          "indexed": true,
          "internalType": "address",
          "name": "to",
          "type": "address"
        },
        {
          "indexed": false,
          "internalType": "uint256",
          "name": "amount",
          "type": "uint256"
        }
      ],
      "name": "Transfer",
      "type": "event"
    },
    {
      "inputs": [],
      "name": "NO_ERROR",
      "outputs": [
        {
          "internalType": "uint256",
          "name": "",
          "type": "uint256"
        }
      ],
      "stateMutability": "view",
      "type": "function"
    },
    {
      "inputs": [],
      "name": "_acceptAdmin",
      "outputs": [
        {
          "internalType": "uint256",
          "name": "",
          "type": "uint256"
        }
      ],
      "stateMutability": "nonpayable",
      "type": "function"
    },
    {
      "inputs": [
        {
          "internalType": "bytes",
          "name": "data",
          "type": "bytes"
        }
      ],
      "name": "_becomeImplementation",
      "outputs": [],
      "stateMutability": "nonpayable",
      "type": "function"
    },
    {
      "inputs": [
        {
          "internalType": "uint256",
          "name": "reduceAmount",
          "type": "uint256"
        }
      ],
      "name": "_reduceReserves",
      "outputs": [
        {
          "internalType": "uint256",
          "name": "",
          "type": "uint256"
        }
      ],
      "stateMutability": "nonpayable",
      "type": "function"
    },
    {
      "inputs": [],
      "name": "_resignImplementation",
      "outputs": [],
      "stateMutability": "nonpayable",
      "type": "function"
    },
    {
      "inputs": [
        {
          "internalType": "contract ComptrollerInterface",
          "name": "newComptroller",
          "type": "address"
        }
      ],
      "name": "_setComptroller",
      "outputs": [
        {
          "internalType": "uint256",
          "name": "",
          "type": "uint256"
        }
      ],
      "stateMutability": "nonpayable",
      "type": "function"
    },
    {
      "inputs": [
        {
          "internalType": "contract InterestRateModel",
          "name": "newInterestRateModel",
          "type": "address"
        }
      ],
      "name": "_setInterestRateModel",
      "outputs": [
        {
          "internalType": "uint256",
          "name": "",
          "type": "uint256"
        }
      ],
      "stateMutability": "nonpayable",
      "type": "function"
    },
    {
      "inputs": [
        {
          "internalType": "address payable",
          "name": "newPendingAdmin",
          "type": "address"
        }
      ],
      "name": "_setPendingAdmin",
      "outputs": [
        {
          "internalType": "uint256",
          "name": "",
          "type": "uint256"
        }
      ],
      "stateMutability": "nonpayable",
      "type": "function"
    },
    {
      "inputs": [
        {
          "internalType": "uint256",
          "name": "newReserveFactorMantissa",
          "type": "uint256"
        }
      ],
      "name": "_setReserveFactor",
      "outputs": [
        {
          "internalType": "uint256",
          "name": "",
          "type": "uint256"
        }
      ],
      "stateMutability": "nonpayable",
      "type": "function"
    },
    {
      "inputs": [],
      "name": "accrualBlockNumber",
      "outputs": [
        {
          "internalType": "uint256",
          "name": "",
          "type": "uint256"
        }
      ],
      "stateMutability": "view",
      "type": "function"
    },
    {
      "inputs": [],
      "name": "accrueInterest",
      "outputs": [
        {
          "internalType": "uint256",
          "name": "",
          "type": "uint256"
        }
      ],
      "stateMutability": "nonpayable",
      "type": "function"
    },
    {
      "inputs": [],
      "name": "admin",
      "outputs": [
        {
          "internalType": "address payable",
          "name": "",
          "type": "address"
        }
      ],
      "stateMutability": "view",
      "type": "function"
    },
    {
      "inputs": [
        {
          "internalType": "address",
          "name": "owner",
          "type": "address"
        },
        {
          "internalType": "address",
          "name": "spender",
          "type": "address"
        }
      ],
      "name": "allowance",
      "outputs": [
        {
          "internalType": "uint256",
          "name": "",
          "type": "uint256"
        }
      ],
      "stateMutability": "view",
      "type": "function"
    },
    {
      "inputs": [
        {
          "internalType": "address",
          "name": "spender",
          "type": "address"
        },
        {
          "internalType": "uint256",
          "name": "amount",
          "type": "uint256"
        }
      ],
      "name": "approve",
      "outputs": [
        {
          "internalType": "bool",
          "name": "",
          "type": "bool"
        }
      ],
      "stateMutability": "nonpayable",
      "type": "function"
    },
    {
      "inputs": [
        {
          "internalType": "address",
          "name": "owner",
          "type": "address"
        }
      ],
      "name": "balanceOf",
      "outputs": [
        {
          "internalType": "uint256",
          "name": "",
          "type": "uint256"
        }
      ],
      "stateMutability": "view",
      "type": "function"
    },
    {
      "inputs": [
        {
          "internalType": "address",
          "name": "owner",
          "type": "address"
        }
      ],
      "name": "balanceOfUnderlying",
      "outputs": [
        {
          "internalType": "uint256",
          "name": "",
          "type": "uint256"
        }
      ],
      "stateMutability": "nonpayable",
      "type": "function"
    },
    {
      "inputs": [
        {
          "internalType": "uint256",
          "name": "borrowAmount",
          "type": "uint256"
        }
      ],
      "name": "borrow",
      "outputs": [
        {
          "internalType": "uint256",
          "name": "",
          "type": "uint256"
        }
      ],
      "stateMutability": "nonpayable",
      "type": "function"
    },
    {
      "inputs": [
        {
          "internalType": "address",
          "name": "account",
          "type": "address"
        }
      ],
      "name": "borrowBalanceCurrent",
      "outputs": [
        {
          "internalType": "uint256",
          "name": "",
          "type": "uint256"
        }
      ],
      "stateMutability": "nonpayable",
      "type": "function"
    },
    {
      "inputs": [
        {
          "internalType": "address",
          "name": "account",
          "type": "address"
        }
      ],
      "name": "borrowBalanceStored",
      "outputs": [
        {
          "internalType": "uint256",
          "name": "",
          "type": "uint256"
        }
      ],
      "stateMutability": "view",
      "type": "function"
    },
    {
      "inputs": [],
      "name": "borrowIndex",
      "outputs": [
        {
          "internalType": "uint256",
          "name": "",
          "type": "uint256"
        }
      ],
      "stateMutability": "view",
      "type": "function"
    },
    {
      "inputs": [],
      "name": "borrowRatePerBlock",
      "outputs": [
        {
          "internalType": "uint256",
          "name": "",
          "type": "uint256"
        }
      ],
      "stateMutability": "view",
      "type": "function"
    },
    {
      "inputs": [],
      "name": "comptroller",
      "outputs": [
        {
          "internalType": "contract ComptrollerInterface",
          "name": "",
          "type": "address"
        }
      ],
      "stateMutability": "view",
      "type": "function"
    },
    {
      "inputs": [],
      "name": "decimals",
      "outputs": [
        {
          "internalType": "uint8",
          "name": "",
          "type": "uint8"
        }
      ],
      "stateMutability": "view",
      "type": "function"
    },
    {
      "inputs": [],
      "name": "exchangeRateCurrent",
      "outputs": [
        {
          "internalType": "uint256",
          "name": "",
          "type": "uint256"
        }
      ],
      "stateMutability": "nonpayable",
      "type": "function"
    },
    {
      "inputs": [],
      "name": "exchangeRateStored",
      "outputs": [
        {
          "internalType": "uint256",
          "name": "",
          "type": "uint256"
        }
      ],
      "stateMutability": "view",
      "type": "function"
    },
    {
      "inputs": [
        {
          "internalType": "address",
          "name": "account",
          "type": "address"
        }
      ],
      "name": "getAccountSnapshot",
      "outputs": [
        {
          "internalType": "uint256",
          "name": "",
          "type": "uint256"
        },
        {
          "internalType": "uint256",
          "name": "",
          "type": "uint256"
        },
        {
          "internalType": "uint256",
          "name": "",
          "type": "uint256"
        },
        {
          "internalType": "uint256",
          "name": "",
          "type": "uint256"
        }
      ],
      "stateMutability": "view",
      "type": "function"
    },
    {
      "inputs": [],
      "name": "getCash",
      "outputs": [
        {
          "internalType": "uint256",
          "name": "",
          "type": "uint256"
        }
      ],
      "stateMutability": "view",
      "type": "function"
    },
    {
      "inputs": [],
      "name": "implementation",
      "outputs": [
        {
          "internalType": "address",
          "name": "",
          "type": "address"
        }
      ],
      "stateMutability": "view",
      "type": "function"
    },
    {
      "inputs": [
        {
          "internalType": "address",
          "name": "underlying_",
          "type": "address"
        },
        {
          "internalType": "contract ComptrollerInterface",
          "name": "comptroller_",
          "type": "address"
        },
        {
          "internalType": "contract InterestRateModel",
          "name": "interestRateModel_",
          "type": "address"
        },
        {
          "internalType": "uint256",
          "name": "initialExchangeRateMantissa_",
          "type": "uint256"
        },
        {
          "internalType": "string",
          "name": "name_",
          "type": "string"
        },
        {
          "internalType": "string",
          "name": "symbol_",
          "type": "string"
        },
        {
          "internalType": "uint8",
          "name": "decimals_",
          "type": "uint8"
        }
      ],
      "name": "initialize",
      "outputs": [],
      "stateMutability": "nonpayable",
      "type": "function"
    },
    {
      "inputs": [
        {
          "internalType": "contract ComptrollerInterface",
          "name": "comptroller_",
          "type": "address"
        },
        {
          "internalType": "contract InterestRateModel",
          "name": "interestRateModel_",
          "type": "address"
        },
        {
          "internalType": "uint256",
          "name": "initialExchangeRateMantissa_",
          "type": "uint256"
        },
        {
          "internalType": "string",
          "name": "name_",
          "type": "string"
        },
        {
          "internalType": "string",
          "name": "symbol_",
          "type": "string"
        },
        {
          "internalType": "uint8",
          "name": "decimals_",
          "type": "uint8"
        }
      ],
      "name": "initialize",
      "outputs": [],
      "stateMutability": "nonpayable",
      "type": "function"
    },
    {
      "inputs": [],
      "name": "interestRateModel",
      "outputs": [
        {
          "internalType": "contract InterestRateModel",
          "name": "",
          "type": "address"
        }
      ],
      "stateMutability": "view",
      "type": "function"
    },
    {
      "inputs": [],
      "name": "isCToken",
      "outputs": [
        {
          "internalType": "bool",
          "name": "",
          "type": "bool"
        }
      ],
      "stateMutability": "view",
      "type": "function"
    },
    {
      "inputs": [],
      "name": "isNativeToken",
      "outputs": [
        {
          "internalType": "bool",
          "name": "",
          "type": "bool"
        }
      ],
      "stateMutability": "pure",
      "type": "function"
    },
    {
      "inputs": [
        {
          "internalType": "address",
          "name": "borrower",
          "type": "address"
        },
        {
          "internalType": "contract CToken",
          "name": "cTokenCollateral",
          "type": "address"
        }
      ],
      "name": "liquidateBorrow",
      "outputs": [],
      "stateMutability": "payable",
      "type": "function"
    },
    {
      "inputs": [],
      "name": "mint",
      "outputs": [],
      "stateMutability": "payable",
      "type": "function"
    },
    {
      "inputs": [],
      "name": "name",
      "outputs": [
        {
          "internalType": "string",
          "name": "",
          "type": "string"
        }
      ],
      "stateMutability": "view",
      "type": "function"
    },
    {
      "inputs": [],
      "name": "pendingAdmin",
      "outputs": [
        {
          "internalType": "address payable",
          "name": "",
          "type": "address"
        }
      ],
      "stateMutability": "view",
      "type": "function"
    },
    {
      "inputs": [],
      "name": "protocolSeizeShareMantissa",
      "outputs": [
        {
          "internalType": "uint256",
          "name": "",
          "type": "uint256"
        }
      ],
      "stateMutability": "view",
      "type": "function"
    },
    {
      "inputs": [
        {
          "internalType": "uint256",
          "name": "redeemTokens",
          "type": "uint256"
        }
      ],
      "name": "redeem",
      "outputs": [
        {
          "internalType": "uint256",
          "name": "",
          "type": "uint256"
        }
      ],
      "stateMutability": "nonpayable",
      "type": "function"
    },
    {
      "inputs": [
        {
          "internalType": "uint256",
          "name": "redeemAmount",
          "type": "uint256"
        }
      ],
      "name": "redeemUnderlying",
      "outputs": [
        {
          "internalType": "uint256",
          "name": "",
          "type": "uint256"
        }
      ],
      "stateMutability": "nonpayable",
      "type": "function"
    },
    {
      "inputs": [],
      "name": "repayBorrow",
      "outputs": [],
      "stateMutability": "payable",
      "type": "function"
    },
    {
      "inputs": [
        {
          "internalType": "address",
          "name": "borrower",
          "type": "address"
        }
      ],
      "name": "repayBorrowBehalf",
      "outputs": [],
      "stateMutability": "payable",
      "type": "function"
    },
    {
      "inputs": [
        {
          "internalType": "address",
          "name": "borrower",
          "type": "address"
        },
        {
          "internalType": "uint256",
          "name": "repayAmount",
          "type": "uint256"
        }
      ],
      "name": "repayWithDeposit",
      "outputs": [],
      "stateMutability": "nonpayable",
      "type": "function"
    },
    {
      "inputs": [],
      "name": "reserveFactorMantissa",
      "outputs": [
        {
          "internalType": "uint256",
          "name": "",
          "type": "uint256"
        }
      ],
      "stateMutability": "view",
      "type": "function"
    },
    {
      "inputs": [
        {
          "internalType": "address",
          "name": "liquidator",
          "type": "address"
        },
        {
          "internalType": "address",
          "name": "borrower",
          "type": "address"
        },
        {
          "internalType": "uint256",
          "name": "seizeTokens",
          "type": "uint256"
        }
      ],
      "name": "seize",
      "outputs": [
        {
          "internalType": "uint256",
          "name": "",
          "type": "uint256"
        }
      ],
      "stateMutability": "nonpayable",
      "type": "function"
    },
    {
      "inputs": [],
      "name": "supplyRatePerBlock",
      "outputs": [
        {
          "internalType": "uint256",
          "name": "",
          "type": "uint256"
        }
      ],
      "stateMutability": "view",
      "type": "function"
    },
    {
      "inputs": [],
      "name": "symbol",
      "outputs": [
        {
          "internalType": "string",
          "name": "",
          "type": "string"
        }
      ],
      "stateMutability": "view",
      "type": "function"
    },
    {
      "inputs": [],
      "name": "totalBorrows",
      "outputs": [
        {
          "internalType": "uint256",
          "name": "",
          "type": "uint256"
        }
      ],
      "stateMutability": "view",
      "type": "function"
    },
    {
      "inputs": [],
      "name": "totalBorrowsCurrent",
      "outputs": [
        {
          "internalType": "uint256",
          "name": "",
          "type": "uint256"
        }
      ],
      "stateMutability": "nonpayable",
      "type": "function"
    },
    {
      "inputs": [],
      "name": "totalReserves",
      "outputs": [
        {
          "internalType": "uint256",
          "name": "",
          "type": "uint256"
        }
      ],
      "stateMutability": "view",
      "type": "function"
    },
    {
      "inputs": [],
      "name": "totalSupply",
      "outputs": [
        {
          "internalType": "uint256",
          "name": "",
          "type": "uint256"
        }
      ],
      "stateMutability": "view",
      "type": "function"
    },
    {
      "inputs": [
        {
          "internalType": "address",
          "name": "dst",
          "type": "address"
        },
        {
          "internalType": "uint256",
          "name": "amount",
          "type": "uint256"
        }
      ],
      "name": "transfer",
      "outputs": [
        {
          "internalType": "bool",
          "name": "",
          "type": "bool"
        }
      ],
      "stateMutability": "nonpayable",
      "type": "function"
    },
    {
      "inputs": [
        {
          "internalType": "address",
          "name": "src",
          "type": "address"
        },
        {
          "internalType": "address",
          "name": "dst",
          "type": "address"
        },
        {
          "internalType": "uint256",
          "name": "amount",
          "type": "uint256"
        }
      ],
      "name": "transferFrom",
      "outputs": [
        {
          "internalType": "bool",
          "name": "",
          "type": "bool"
        }
      ],
      "stateMutability": "nonpayable",
      "type": "function"
    },
    {
      "inputs": [],
      "name": "underlying",
      "outputs": [
        {
          "internalType": "address",
          "name": "",
          "type": "address"
        }
      ],
      "stateMutability": "view",
      "type": "function"
    },
    {
      "stateMutability": "payable",
      "type": "receive"
    }
  ],
  "transactionHash": "0x1027779bb2bbcdd481afe2580c1b8c3dcf2abfe82cfccca163e185e11bcfa269",
  "args": [],
  "numDeployments": 1,
  "solcInputHash": "1cab44790c86e06d742108d49156cc3e",
  "bytecode": "0x608060405234801561001057600080fd5b506139ba806100206000396000f3fe6080604052600436106103395760003560e01c8063852a12e3116101ab578063b71d1a0c116100f7578063e9c714f211610095578063f851a4401161006f578063f851a4401461097a578063f8f9da281461099f578063fca7820b146109b4578063fe9c44ae146109d457600080fd5b8063e9c714f214610925578063f2b3abbd1461093a578063f3fdb15a1461095a57600080fd5b8063c5ebeaec116100d1578063c5ebeaec1461088c578063db006a75146108ac578063dd62ed3e146108cc578063e59746191461091257600080fd5b8063b71d1a0c14610817578063bd6d894d14610837578063c37f68e21461084c57600080fd5b80639af4ee7e11610164578063aa5af0fd1161013e578063aa5af0fd146107b9578063aae40a2a146107cf578063ae9d70b0146107e2578063b2a02ff1146107f757600080fd5b80639af4ee7e14610770578063a6afed9514610784578063a9059cbb1461079957600080fd5b8063852a12e3146106c557806388c21e41146106e55780638f840ddd1461070557806395d89b411461071b57806395dd91931461073057806399d8c1b41461075057600080fd5b80633b1d21a211610285578063601a0bf1116102235780636c540baf116101fd5780636c540baf146106445780636f307dc31461065a57806370a082311461067a57806373acee98146106b057600080fd5b8063601a0bf1146105f45780636752e7021461061457806369ab32501461062f57600080fd5b80634e4d9fea1161025f5780634e4d9fea1461058c57806356e67728146105945780635c60da1b146105b45780635fe3b567146105d457600080fd5b80633b1d21a2146105415780634576b5db1461055657806347bd37181461057657600080fd5b806318160ddd116102f257806323b872dd116102cc57806323b872dd1461049d57806326782247146104bd578063313ce567146104f55780633af9e6691461052157600080fd5b806318160ddd14610452578063182df0f5146104685780631a31d4651461047d57600080fd5b806306fdde0314610396578063095ea7b3146103c15780631249c58b146103f1578063153ab505146103f9578063173b99041461040e57806317bfdfbc1461043257600080fd5b36610391576011546001600160a01b0316331461038f5760405162461bcd60e51b815260206004820152600f60248201526e2177726170706564206e617469766560881b60448201526064015b60405180910390fd5b005b600080fd5b3480156103a257600080fd5b506103ab6109e9565b6040516103b89190613312565b60405180910390f35b3480156103cd57600080fd5b506103e16103dc366004613375565b610a77565b60405190151581526020016103b8565b61038f610ae7565b34801561040557600080fd5b5061038f610af2565b34801561041a57600080fd5b5061042460085481565b6040519081526020016103b8565b34801561043e57600080fd5b5061042461044d3660046133a1565b610b67565b34801561045e57600080fd5b50610424600d5481565b34801561047457600080fd5b50610424610bba565b34801561048957600080fd5b5061038f610498366004613480565b610bc9565b3480156104a957600080fd5b506103e16104b8366004613536565b610c5e565b3480156104c957600080fd5b506004546104dd906001600160a01b031681565b6040516001600160a01b0390911681526020016103b8565b34801561050157600080fd5b5060035461050f9060ff1681565b60405160ff90911681526020016103b8565b34801561052d57600080fd5b5061042461053c3660046133a1565b610cae565b34801561054d57600080fd5b50610424610ce7565b34801561056257600080fd5b506104246105713660046133a1565b610cf1565b34801561058257600080fd5b50610424600b5481565b61038f610e0f565b3480156105a057600080fd5b5061038f6105af366004613577565b610e18565b3480156105c057600080fd5b506012546104dd906001600160a01b031681565b3480156105e057600080fd5b506005546104dd906001600160a01b031681565b34801561060057600080fd5b5061042461060f3660046135c0565b610f02565b34801561062057600080fd5b50610424666379da05b6000081565b34801561063b57600080fd5b50610424600081565b34801561065057600080fd5b5061042460095481565b34801561066657600080fd5b506011546104dd906001600160a01b031681565b34801561068657600080fd5b506104246106953660046133a1565b6001600160a01b03166000908152600e602052604090205490565b3480156106bc57600080fd5b50610424610f41565b3480156106d157600080fd5b506104246106e03660046135c0565b610f8b565b3480156106f157600080fd5b5061038f610700366004613375565b610f9e565b34801561071157600080fd5b50610424600c5481565b34801561072757600080fd5b506103ab611289565b34801561073c57600080fd5b5061042461074b3660046133a1565b611296565b34801561075c57600080fd5b5061038f61076b3660046135d9565b6112a1565b34801561077c57600080fd5b5060016103e1565b34801561079057600080fd5b50610424611389565b3480156107a557600080fd5b506103e16107b4366004613375565b61151a565b3480156107c557600080fd5b50610424600a5481565b61038f6107dd36600461367b565b611569565b3480156107ee57600080fd5b50610424611574565b34801561080357600080fd5b50610424610812366004613536565b61160c565b34801561082357600080fd5b506104246108323660046133a1565b61165b565b34801561084357600080fd5b506104246116fb565b34801561085857600080fd5b5061086c6108673660046133a1565b61174b565b6040805194855260208501939093529183015260608201526080016103b8565b34801561089857600080fd5b506104246108a73660046135c0565b61178c565b3480156108b857600080fd5b506104246108c73660046135c0565b611797565b3480156108d857600080fd5b506104246108e736600461367b565b6001600160a01b039182166000908152600f6020908152604080832093909416825291909152205490565b61038f6109203660046133a1565b6117a2565b34801561093157600080fd5b506104246117af565b34801561094657600080fd5b506104246109553660046133a1565b6118bf565b34801561096657600080fd5b506006546104dd906001600160a01b031681565b34801561098657600080fd5b506003546104dd9061010090046001600160a01b031681565b3480156109ab57600080fd5b506104246118d3565b3480156109c057600080fd5b506104246109cf3660046135c0565b611926565b3480156109e057600080fd5b506103e1600181565b600180546109f6906136b4565b80601f0160208091040260200160405190810160405280929190818152602001828054610a22906136b4565b8015610a6f5780601f10610a4457610100808354040283529160200191610a6f565b820191906000526020600020905b815481529060010190602001808311610a5257829003601f168201915b505050505081565b336000818152600f602090815260408083206001600160a01b03871680855292528083208590555191929182907f8c5be1e5ebec7d5bd14f71427d1e84f3dd0314c0f7b2291e5b200ac8c7c3b92590610ad39087815260200190565b60405180910390a360019150505b92915050565b610af034611965565b565b60035461010090046001600160a01b03163314610af05760405162461bcd60e51b815260206004820152602d60248201527f6f6e6c79207468652061646d696e206d61792063616c6c205f72657369676e4960448201526c36b83632b6b2b73a30ba34b7b760991b6064820152608401610386565b6000805460ff16610b8a5760405162461bcd60e51b8152600401610386906136ee565b6000805460ff19169055610b9c611389565b50610ba682611296565b90506000805460ff19166001179055919050565b6000610bc46119b4565b905090565b610bd78686868686866112a1565b601180546001600160a01b0319166001600160a01b038916908117909155604080516318160ddd60e01b815290516318160ddd916004808201926020929091908290030181865afa158015610c30573d6000803e3d6000fd5b505050506040513d601f19601f82011682018060405250810190610c549190613712565b5050505050505050565b6000805460ff16610c815760405162461bcd60e51b8152600401610386906136ee565b6000805460ff19168155610c9733868686611a1c565b1490506000805460ff191660011790559392505050565b600080610cb96116fb565b6001600160a01b0384166000908152600e6020526040902054909150610ce0908290611c2b565b9392505050565b6000610bc4611c4b565b60035460009061010090046001600160a01b03163314610d245760405163d219dc1f60e01b815260040160405180910390fd5b816001600160a01b0316627e3dd26040518163ffffffff1660e01b8152600401602060405180830381865afa158015610d61573d6000803e3d6000fd5b505050506040513d601f19601f82011682018060405250810190610d85919061372b565b610da2576040516320d1611760e21b815260040160405180910390fd5b600554604080516001600160a01b03928316815291841660208301527f7ac369dbd14fa5ea3f473ed67cc9d598964a77501540ba6751eb0b3decf5870d910160405180910390a150600580546001600160a01b0319166001600160a01b0392909216919091179055600090565b610af034611cc0565b60035461010090046001600160a01b03163314610e8d5760405162461bcd60e51b815260206004820152602d60248201527f6f6e6c79207468652061646d696e206d61792063616c6c205f6265636f6d654960448201526c36b83632b6b2b73a30ba34b7b760991b6064820152608401610386565b478015610efe57601160009054906101000a90046001600160a01b03166001600160a01b031663d0e30db0826040518263ffffffff1660e01b81526004016000604051808303818588803b158015610ee457600080fd5b505af1158015610ef8573d6000803e3d6000fd5b50505050505b5050565b6000805460ff16610f255760405162461bcd60e51b8152600401610386906136ee565b6000805460ff19169055610f37611389565b50610ba682611d11565b6000805460ff16610f645760405162461bcd60e51b8152600401610386906136ee565b6000805460ff19169055610f76611389565b5050600b546000805460ff1916600117905590565b6000610f9682611de4565b506000919050565b610fa6611389565b50600554604051631200453160e11b815233916000916001600160a01b03909116906324008a6290610fe290309086908990899060040161374d565b6020604051808303816000875af1158015611001573d6000803e3d6000fd5b505050506040513d601f19601f820116820180604052508101906110259190613712565b9050801561104957604051638c81362d60e01b815260048101829052602401610386565b436009541461106b5760405163c9021e2f60e01b815260040160405180910390fd5b600061107685611e25565b905060006000198514611089578461108b565b815b905060006110976119b4565b905060006110a58383611e71565b9050876001600160a01b0316866001600160a01b03161461115b5760055460405163eabe7d9160e01b81526001600160a01b039091169063eabe7d91906110f49030908a908690600401613777565b6020604051808303816000875af1158015611113573d6000803e3d6000fd5b505050506040513d601f19601f820116820180604052508101906111379190613712565b9450841561115b5760405163480f424760e01b815260048101869052602401610386565b80600d5461116991906137b1565b600d556001600160a01b0386166000908152600e60205260409020546111909082906137b1565b6001600160a01b0387166000908152600e60205260408120919091556111b684866137b1565b9050600084600b546111c891906137b1565b6001600160a01b03808c1660009081526010602052604090819020858155600a54600190910155600b839055519192503091908a16906000805160206139658339815191529061121b9087815260200190565b60405180910390a3604080516001600160a01b03808b1682528c16602082015290810186905260608101839052608081018290527f1a2a22cb034d26d1854bdc6666a5b91fe25efbbb5dcad3b0355478d6f5c362a19060a0015b60405180910390a150505050505050505050565b600280546109f6906136b4565b6000610ae182611e25565b60035461010090046001600160a01b031633146112d0576040516282b42960e81b815260040160405180910390fd5b6009541515806112e15750600a5415155b156112ff57604051630fa3c9cf60e01b815260040160405180910390fd5b600784905560008490036113265760405163b0c5349960e01b815260040160405180910390fd5b61132f86610cf1565b5043600955670de0b6b3a7640000600a5561134985611e8e565b5060016113568482613813565b5060026113638382613813565b506003805460ff90921660ff199283161790556000805490911660011790555050505050565b60095460009043908181036113a15760009250505090565b60006113ab611c4b565b600b54600c54600a546006546040516315f2405360e01b81526004810186905260248101859052604481018490529495509293919290916000916001600160a01b0316906315f2405390606401602060405180830381865afa158015611415573d6000803e3d6000fd5b505050506040513d601f19601f820116820180604052508101906114399190613712565b905065048c273950008111156114625760405163ad30f1e160e01b815260040160405180910390fd5b600061146e87896137b1565b6009899055905060006114818383611fad565b9050600061148f8288611c2b565b905061149b87826138d3565b600b556008546114ac908288611fb9565b600c556114ba828680611fb9565b600a819055600b54604080518b8152602081018590529081019290925260608201527f4dec04e750ca11537cabcd8a9eab06494de08da3735bc8871cd41250e190bc049060800160405180910390a160009a505050505050505050505090565b6000805460ff1661153d5760405162461bcd60e51b8152600401610386906136ee565b6000805460ff1916815561155333808686611a1c565b1490506000805460ff1916600117905592915050565b610efe823483611fda565b6006546000906001600160a01b031663b8168816611590611c4b565b600b54600c546008546040516001600160e01b031960e087901b16815260048101949094526024840192909252604483015260648201526084015b602060405180830381865afa1580156115e8573d6000803e3d6000fd5b505050506040513d601f19601f82011682018060405250810190610bc49190613712565b6000805460ff1661162f5760405162461bcd60e51b8152600401610386906136ee565b6000805460ff19169055611645338585856120b8565b50600080805460ff191660011790559392505050565b60035460009061010090046001600160a01b0316331461168e57604051635cb56c2b60e01b815260040160405180910390fd5b600454604080516001600160a01b03928316815291841660208301527fca4f2f25d0898edd99413412fb94012f9e54ec8142f9b093e7720646a95b16a9910160405180910390a150600480546001600160a01b0319166001600160a01b0392909216919091179055600090565b6000805460ff1661171e5760405162461bcd60e51b8152600401610386906136ee565b6000805460ff19169055611730611389565b50611739610bba565b90506000805460ff1916600117905590565b6001600160a01b0381166000908152600e6020526040812054819081908190819061177587611e25565b61177d6119b4565b93509350935093509193509193565b6000610f9682612301565b6000610f9682612340565b6117ac8134612381565b50565b6004546000906001600160a01b0316331415806117d557506004546001600160a01b0316155b156117f357604051631ba24f2960e21b815260040160405180910390fd5b600354600454604080516101009093046001600160a01b03908116845290911660208301527ff9ffabca9c8276e99321725bcb43fb076a6c66a54b7f21c4e8146d8519b417dc910160405180910390a1600454604080516001600160a01b039092168252600060208301527fca4f2f25d0898edd99413412fb94012f9e54ec8142f9b093e7720646a95b16a9910160405180910390a1506004805460038054610100600160a81b0319166101006001600160a01b038416021790556001600160a01b0319169055600090565b60006118c9611389565b50610ae182611e8e565b6006546000906001600160a01b03166315f240536118ef611c4b565b600b54600c546040516001600160e01b031960e086901b1681526004810193909352602483019190915260448201526064016115cb565b6000805460ff166119495760405162461bcd60e51b8152600401610386906136ee565b6000805460ff1916905561195b611389565b50610ba6826123d3565b60005460ff166119875760405162461bcd60e51b8152600401610386906136ee565b6000805460ff19169055611999611389565b506119a43382612474565b506000805460ff19166001179055565b600d546000908082036119c957505060075490565b60006119d3611c4b565b90506000600c54600b54836119e891906138d3565b6119f291906137b1565b9050600083611a09670de0b6b3a7640000846138e6565b611a1391906138fd565b95945050505050565b6005546040516317b9b84b60e31b815260009182916001600160a01b039091169063bdcdc25890611a5790309089908990899060040161374d565b6020604051808303816000875af1158015611a76573d6000803e3d6000fd5b505050506040513d601f19601f82011682018060405250810190611a9a9190613712565b90508015611abe5760405163089d427760e11b815260048101829052602401610386565b836001600160a01b0316856001600160a01b031603611af057604051638cd22d1960e01b815260040160405180910390fd5b6000856001600160a01b0316876001600160a01b031603611b145750600019611b3c565b506001600160a01b038086166000908152600f60209081526040808320938a16835292905220545b6001600160a01b0386166000908152600e6020526040902054611b609085906137b1565b6001600160a01b038088166000908152600e60205260408082209390935590871681522054611b909085906138d3565b6001600160a01b0386166000908152600e60205260409020556000198114611be357611bbc84826137b1565b6001600160a01b038088166000908152600f60209081526040808320938c16835292905220555b846001600160a01b0316866001600160a01b031660008051602061396583398151915286604051611c1691815260200190565b60405180910390a35060009695505050505050565b600080611c388484611fad565b9050611c438161261d565b949350505050565b6011546040516370a0823160e01b81523060048201526000916001600160a01b03169081906370a0823190602401602060405180830381865afa158015611c96573d6000803e3d6000fd5b505050506040513d601f19601f82011682018060405250810190611cba9190613712565b91505090565b60005460ff16611ce25760405162461bcd60e51b8152600401610386906136ee565b6000805460ff19169055611cf4611389565b50611d00333383612631565b50506000805460ff19166001179055565b600081611d1c611c4b565b1015611d3b57604051633345e99960e01b815260040160405180910390fd5b600c54821115611d5e576040516378d2980560e11b815260040160405180910390fd5b81600c54611d6c91906137b1565b600c55600354611d8a9061010090046001600160a01b0316836127cf565b7f3bad0c59cf2f06e7314077049f48a93578cd16f5ef92329f1dab1420a99c177e600360019054906101000a90046001600160a01b031683600c54604051611dd49392919061391f565b60405180910390a1506000919050565b60005460ff16611e065760405162461bcd60e51b8152600401610386906136ee565b6000805460ff19169055611e18611389565b506119a43360008361286b565b6001600160a01b038116600090815260106020526040812080548203611e4e5750600092915050565b600a548154600091611e5f916138e6565b9050816001015481611c4391906138fd565b6000610ce0611e8884670de0b6b3a7640000612af3565b83612aff565b60035460009061010090046001600160a01b03163314611ec15760405163407fded560e01b815260040160405180910390fd5b816001600160a01b0316632191f92a6040518163ffffffff1660e01b8152600401602060405180830381865afa158015611eff573d6000803e3d6000fd5b505050506040513d601f19601f82011682018060405250810190611f23919061372b565b611f405760405163a710429d60e01b815260040160405180910390fd5b600654604080516001600160a01b03928316815291841660208301527fedffc32e068c7c95dfd4bdfd5c4d939a084d6b11c4199eac8436ed234d72f926910160405180910390a150600680546001600160a01b0319166001600160a01b0392909216919091179055600090565b6000610ce08383612af3565b600080611fc68585611fad565b9050611a13611fd48261261d565b84612b0b565b60005460ff16611ffc5760405162461bcd60e51b8152600401610386906136ee565b6000805460ff1916905561200e611389565b506000816001600160a01b031663a6afed956040518163ffffffff1660e01b81526004016020604051808303816000875af1158015612051573d6000803e3d6000fd5b505050506040513d601f19601f820116820180604052508101906120759190613712565b9050801561209957604051633eea49b760e11b815260048101829052602401610386565b6120a533858585612b17565b50506000805460ff191660011790555050565b60055460405163d02f735160e01b81523060048201526001600160a01b0386811660248301528581166044830152848116606483015260848201849052600092169063d02f73519060a4016020604051808303816000875af1158015612122573d6000803e3d6000fd5b505050506040513d601f19601f820116820180604052508101906121469190613712565b9050801561216a576040516363e00e3360e11b815260048101829052602401610386565b836001600160a01b0316836001600160a01b03160361219c57604051633a94626760e11b815260040160405180910390fd5b60006121af83666379da05b6000061305d565b905060006121bd82856137b1565b905060006121c96119b4565b905060006121d78285611c2b565b9050600081600c546121e991906138d3565b600c819055600d549091506121ff9086906137b1565b600d556001600160a01b0388166000908152600e60205260409020546122269088906137b1565b6001600160a01b03808a166000908152600e602052604080822093909355908b16815220546122569085906138d3565b6001600160a01b03808b166000818152600e602052604090819020939093559151908a1690600080516020613965833981519152906122989088815260200190565b60405180910390a360405185815230906001600160a01b038a16906000805160206139658339815191529060200160405180910390a37fa91e67c5ea634cd43a12c5a482724b03de01e85ca68702a53d0c2f45cb7c1dc53083836040516112759392919061391f565b60005460ff166123235760405162461bcd60e51b8152600401610386906136ee565b6000805460ff19169055612335611389565b506119a4338261307c565b60005460ff166123625760405162461bcd60e51b8152600401610386906136ee565b6000805460ff19169055612374611389565b506119a43382600061286b565b60005460ff166123a35760405162461bcd60e51b8152600401610386906136ee565b6000805460ff191690556123b5611389565b506123c1338383612631565b50506000805460ff1916600117905550565b60035460009061010090046001600160a01b0316331461240657604051631205b57b60e11b815260040160405180910390fd5b670de0b6b3a764000082111561242f5760405163717220f360e11b815260040160405180910390fd5b60085460408051918252602082018490527faaa68312e2ea9d50e16af5068410ab56e1a1fd06037b1a35664812c30f821460910160405180910390a150600855600090565b600554604051634ef4c3e160e01b81526000916001600160a01b031690634ef4c3e1906124a990309087908790600401613777565b6020604051808303816000875af11580156124c8573d6000803e3d6000fd5b505050506040513d601f19601f820116820180604052508101906124ec9190613712565b90508015612510576040516349abd4fd60e01b815260048101829052602401610386565b4360095414612532576040516338d8859760e01b815260040160405180910390fd5b600061253c6119b4565b9050600061254a858561321b565b905060006125588284611e71565b905080600d5461256891906138d3565b600d556001600160a01b0386166000908152600e602052604090205461258f9082906138d3565b6001600160a01b0387166000908152600e60205260409081902091909155517f4c209b5fc8ad50758f13e2e1088ba56a560dff690a1c6fef26394f4c03821c4f906125df9088908590859061391f565b60405180910390a16040518181526001600160a01b0387169030906000805160206139658339815191529060200160405180910390a3505050505050565b6000610ae1670de0b6b3a7640000836138fd565b600554604051631200453160e11b815260009182916001600160a01b03909116906324008a629061266c90309089908990899060040161374d565b6020604051808303816000875af115801561268b573d6000803e3d6000fd5b505050506040513d601f19601f820116820180604052508101906126af9190613712565b905080156126d357604051638c81362d60e01b815260048101829052602401610386565b43600954146126f55760405163c9021e2f60e01b815260040160405180910390fd5b600061270085611e25565b9050600060001985146127135784612715565b815b90506000612723888361321b565b9050600061273182856137b1565b9050600082600b5461274391906137b1565b6001600160a01b038a8116600081815260106020908152604091829020878155600a54600190910155600b8590558151938f168452830191909152810185905260608101849052608081018290529091507f1a2a22cb034d26d1854bdc6666a5b91fe25efbbb5dcad3b0355478d6f5c362a19060a00160405180910390a1509098975050505050505050565b601154604051632e1a7d4d60e01b8152600481018390526001600160a01b03909116908190632e1a7d4d90602401600060405180830381600087803b15801561281757600080fd5b505af115801561282b573d6000803e3d6000fd5b50506040516001600160a01b038616925084156108fc02915084906000818181858888f19350505050158015612865573d6000803e3d6000fd5b50505050565b811580159061287957508015155b156128975760405163013c442960e21b815260040160405180910390fd5b60006128a16119b4565b905060008084156128c0578491506128b98386611c2b565b90506128d0565b6128ca8484611e71565b91508390505b60055460405163eabe7d9160e01b81526000916001600160a01b03169063eabe7d91906129059030908b908890600401613777565b6020604051808303816000875af1158015612924573d6000803e3d6000fd5b505050506040513d601f19601f820116820180604052508101906129489190613712565b9050801561296c5760405163480f424760e01b815260048101829052602401610386565b436009541461298e576040516397b5cfcd60e01b815260040160405180910390fd5b81612997611c4b565b10156129b6576040516391240a1b60e01b815260040160405180910390fd5b82600d546129c491906137b1565b600d556001600160a01b0387166000908152600e60205260409020546129eb9084906137b1565b6001600160a01b0388166000908152600e6020526040902055612a0e87836127cf565b60405183815230906001600160a01b038916906000805160206139658339815191529060200160405180910390a37fe5b754fb1abb7f01b499791d0b820ae3b6af3424ac1c59768edb53f4ec31a929878385604051612a6f9392919061391f565b60405180910390a16005546040516351dff98960e01b81523060048201526001600160a01b0389811660248301526044820185905260648201869052909116906351dff98990608401600060405180830381600087803b158015612ad257600080fd5b505af1158015612ae6573d6000803e3d6000fd5b5050505050505050505050565b6000610ce082846138e6565b6000610ce082846138fd565b6000610ce082846138d3565b600554604051632fe3f38f60e11b81523060048201526001600160a01b03838116602483015286811660448301528581166064830152608482018590526000921690635fc7e71e9060a4016020604051808303816000875af1158015612b81573d6000803e3d6000fd5b505050506040513d601f19601f82011682018060405250810190612ba59190613712565b90508015612bc957604051630a14d17960e11b815260048101829052602401610386565b4360095414612beb576040516380965b1b60e01b815260040160405180910390fd5b43826001600160a01b0316636c540baf6040518163ffffffff1660e01b8152600401602060405180830381865afa158015612c2a573d6000803e3d6000fd5b505050506040513d601f19601f82011682018060405250810190612c4e9190613712565b14612c6c57604051631046f38d60e31b815260040160405180910390fd5b846001600160a01b0316846001600160a01b031603612c9e57604051631bd1a62160e21b815260040160405180910390fd5b82600003612cbf5760405163d29da7ef60e01b815260040160405180910390fd5b6000198303612ce157604051635982c5bb60e11b815260040160405180910390fd5b6000612cee868686612631565b60055460405163c488847b60e01b81529192506000916001600160a01b039091169063c488847b90612d2890309088908790600401613777565b6040805180830381865afa158015612d44573d6000803e3d6000fd5b505050506040513d601f19601f82011682018060405250810190612d689190613940565b6005546040516332bf88c160e21b81526001600160a01b038a811660048301529294509116915063cafe2304906024016020604051808303816000875af1158015612db7573d6000803e3d6000fd5b505050506040513d601f19601f82011682018060405250810190612ddb919061372b565b15612ed95760008690506000816001600160a01b0316630fa013ac6040518163ffffffff1660e01b8152600401602060405180830381865afa158015612e25573d6000803e3d6000fd5b505050506040513d601f19601f82011682018060405250810190612e499190613712565b905082811015612e6c576040516350e4bf9960e11b815260040160405180910390fd5b6040516386b9d81f60e01b81526001600160a01b0389811660048301528a811660248301528316906386b9d81f90604401600060405180830381600087803b158015612eb757600080fd5b505af1158015612ecb573d6000803e3d6000fd5b505050505050505050612865565b6040516370a0823160e01b81526001600160a01b0387811660048301528291908616906370a0823190602401602060405180830381865afa158015612f22573d6000803e3d6000fd5b505050506040513d601f19601f82011682018060405250810190612f469190613712565b1015612f65576040516350e4bf9960e11b815260040160405180910390fd5b306001600160a01b03851603612f8657612f81308888846120b8565b612ffb565b60405163b2a02ff160e01b81526001600160a01b0385169063b2a02ff190612fb6908a908a908690600401613777565b6020604051808303816000875af1158015612fd5573d6000803e3d6000fd5b505050506040513d601f19601f82011682018060405250810190612ff99190613712565b505b604080516001600160a01b0389811682528881166020830152818301859052861660608201526080810183905290517f298637f684da70674f26509b10f07ec2fbc77a335ab1e7d6215a4b2484d8bb529181900360a00190a150505050505050565b6000670de0b6b3a76400006130728484612af3565b610ce091906138fd565b60055460405163368f515360e21b81526000916001600160a01b03169063da3d454c906130b190309087908790600401613777565b6020604051808303816000875af11580156130d0573d6000803e3d6000fd5b505050506040513d601f19601f820116820180604052508101906130f49190613712565b905080156131185760405163918db40f60e01b815260048101829052602401610386565b436009541461313a57604051630e8d8c6160e21b815260040160405180910390fd5b81613143611c4b565b1015613162576040516348c2588160e01b815260040160405180910390fd5b600061316d84611e25565b9050600061317b84836138d3565b9050600084600b5461318d91906138d3565b6001600160a01b0387166000908152601060205260409020838155600a54600190910155600b81905590506131c286866127cf565b604080516001600160a01b038816815260208101879052908101839052606081018290527f13ed6866d4e1ee6da46f845c46d7e54120883d75c5ea9a2dacc1c4ca8984ab809060800160405180910390a1505050505050565b6000336001600160a01b038416146132675760405162461bcd60e51b815260206004820152600f60248201526e0e6cadcc8cae440dad2e6dac2e8c6d608b1b6044820152606401610386565b8134146132a75760405162461bcd60e51b815260206004820152600e60248201526d0ecc2d8eaca40dad2e6dac2e8c6d60931b6044820152606401610386565b60115460408051630d0e30db60e41b815290516001600160a01b0390921691829163d0e30db091869160048082019260009290919082900301818588803b1580156132f157600080fd5b505af1158015613305573d6000803e3d6000fd5b5095979650505050505050565b600060208083528351808285015260005b8181101561333f57858101830151858201604001528201613323565b506000604082860101526040601f19601f8301168501019250505092915050565b6001600160a01b03811681146117ac57600080fd5b6000806040838503121561338857600080fd5b823561339381613360565b946020939093013593505050565b6000602082840312156133b357600080fd5b8135610ce081613360565b634e487b7160e01b600052604160045260246000fd5b600067ffffffffffffffff808411156133ef576133ef6133be565b604051601f8501601f19908116603f01168101908282118183101715613417576134176133be565b8160405280935085815286868601111561343057600080fd5b858560208301376000602087830101525050509392505050565b600082601f83011261345b57600080fd5b610ce0838335602085016133d4565b803560ff8116811461347b57600080fd5b919050565b600080600080600080600060e0888a03121561349b57600080fd5b87356134a681613360565b965060208801356134b681613360565b955060408801356134c681613360565b945060608801359350608088013567ffffffffffffffff808211156134ea57600080fd5b6134f68b838c0161344a565b945060a08a013591508082111561350c57600080fd5b506135198a828b0161344a565b92505061352860c0890161346a565b905092959891949750929550565b60008060006060848603121561354b57600080fd5b833561355681613360565b9250602084013561356681613360565b929592945050506040919091013590565b60006020828403121561358957600080fd5b813567ffffffffffffffff8111156135a057600080fd5b8201601f810184136135b157600080fd5b611c43848235602084016133d4565b6000602082840312156135d257600080fd5b5035919050565b60008060008060008060c087890312156135f257600080fd5b86356135fd81613360565b9550602087013561360d81613360565b945060408701359350606087013567ffffffffffffffff8082111561363157600080fd5b61363d8a838b0161344a565b9450608089013591508082111561365357600080fd5b5061366089828a0161344a565b92505061366f60a0880161346a565b90509295509295509295565b6000806040838503121561368e57600080fd5b823561369981613360565b915060208301356136a981613360565b809150509250929050565b600181811c908216806136c857607f821691505b6020821081036136e857634e487b7160e01b600052602260045260246000fd5b50919050565b6020808252600a90820152691c994b595b9d195c995960b21b604082015260600190565b60006020828403121561372457600080fd5b5051919050565b60006020828403121561373d57600080fd5b81518015158114610ce057600080fd5b6001600160a01b039485168152928416602084015292166040820152606081019190915260800190565b6001600160a01b039384168152919092166020820152604081019190915260600190565b634e487b7160e01b600052601160045260246000fd5b81810381811115610ae157610ae161379b565b601f82111561380e57600081815260208120601f850160051c810160208610156137eb5750805b601f850160051c820191505b8181101561380a578281556001016137f7565b5050505b505050565b815167ffffffffffffffff81111561382d5761382d6133be565b6138418161383b84546136b4565b846137c4565b602080601f831160018114613876576000841561385e5750858301515b600019600386901b1c1916600185901b17855561380a565b600085815260208120601f198616915b828110156138a557888601518255948401946001909101908401613886565b50858210156138c35787850151600019600388901b60f8161c191681555b5050505050600190811b01905550565b80820180821115610ae157610ae161379b565b8082028115828204841417610ae157610ae161379b565b60008261391a57634e487b7160e01b600052601260045260246000fd5b500490565b6001600160a01b039390931683526020830191909152604082015260600190565b6000806040838503121561395357600080fd5b50508051602090910151909290915056feddf252ad1be2c89b69c2b068fc378daa952ba7f163c4a11628f55a4df523b3efa2646970667358221220cda76b698c7b14a56fdc66128fef9e57b702a945355a1270953d107030d6aacd64736f6c63430008110033",
  "devdoc": {
    "author": "Compound",
    "kind": "dev",
    "methods": {
      "_acceptAdmin()": {
        "details": "Admin function for pending admin to accept role and update admin",
        "returns": {
          "_0": "uint 0=success, otherwise a failure (see ErrorReporter.sol for details)"
        }
      },
      "_becomeImplementation(bytes)": {
        "params": {
          "data": "The encoded bytes data for any initialization"
        }
      },
      "_reduceReserves(uint256)": {
        "params": {
          "reduceAmount": "Amount of reduction to reserves"
        },
        "returns": {
          "_0": "uint 0=success, otherwise a failure (see ErrorReporter.sol for details)"
        }
      },
      "_setComptroller(address)": {
        "details": "Admin function to set a new comptroller",
        "returns": {
          "_0": "uint 0=success, otherwise a failure (see ErrorReporter.sol for details)"
        }
      },
      "_setInterestRateModel(address)": {
        "details": "Admin function to accrue interest and update the interest rate model",
        "params": {
          "newInterestRateModel": "the new interest rate model to use"
        },
        "returns": {
          "_0": "uint 0=success, otherwise a failure (see ErrorReporter.sol for details)"
        }
      },
      "_setPendingAdmin(address)": {
        "details": "Admin function to begin change of admin. The newPendingAdmin must call `_acceptAdmin` to finalize the transfer.",
        "params": {
          "newPendingAdmin": "New pending admin."
        },
        "returns": {
          "_0": "uint 0=success, otherwise a failure (see ErrorReporter.sol for details)"
        }
      },
      "_setReserveFactor(uint256)": {
        "details": "Admin function to accrue interest and set a new reserve factor",
        "returns": {
          "_0": "uint 0=success, otherwise a failure (see ErrorReporter.sol for details)"
        }
      },
      "accrueInterest()": {
        "details": "This calculates interest accrued from the last checkpointed block   up to the current block and writes new checkpoint to storage."
      },
      "allowance(address,address)": {
        "params": {
          "owner": "The address of the account which owns the tokens to be spent",
          "spender": "The address of the account which may transfer tokens"
        },
        "returns": {
          "_0": "The number of tokens allowed to be spent (-1 means infinite)"
        }
      },
      "approve(address,uint256)": {
        "details": "This will overwrite the approval amount for `spender`  and is subject to issues noted [here](https://eips.ethereum.org/EIPS/eip-20#approve)",
        "params": {
          "amount": "The number of tokens that are approved (uint256.max means infinite)",
          "spender": "The address of the account which may transfer tokens"
        },
        "returns": {
          "_0": "Whether or not the approval succeeded"
        }
      },
      "balanceOf(address)": {
        "params": {
          "owner": "The address of the account to query"
        },
        "returns": {
          "_0": "The number of tokens owned by `owner`"
        }
      },
      "balanceOfUnderlying(address)": {
        "details": "This also accrues interest in a transaction",
        "params": {
          "owner": "The address of the account to query"
        },
        "returns": {
          "_0": "The amount of underlying owned by `owner`"
        }
      },
      "borrow(uint256)": {
        "params": {
          "borrowAmount": "The amount of the underlying asset to borrow"
        },
        "returns": {
          "_0": "uint 0=success, otherwise a failure (see ErrorReporter.sol for details)"
        }
      },
      "borrowBalanceCurrent(address)": {
        "params": {
          "account": "The address whose balance should be calculated after updating borrowIndex"
        },
        "returns": {
          "_0": "The calculated balance"
        }
      },
      "borrowBalanceStored(address)": {
        "params": {
          "account": "The address whose balance should be calculated"
        },
        "returns": {
          "_0": "The calculated balance"
        }
      },
      "borrowRatePerBlock()": {
        "returns": {
          "_0": "The borrow interest rate per block, scaled by 1e18"
        }
      },
      "exchangeRateCurrent()": {
        "returns": {
          "_0": "Calculated exchange rate scaled by 1e18"
        }
      },
      "exchangeRateStored()": {
        "details": "This function does not accrue interest before calculating the exchange rate",
        "returns": {
          "_0": "Calculated exchange rate scaled by 1e18"
        }
      },
      "getAccountSnapshot(address)": {
        "details": "This is used by comptroller to more efficiently perform liquidity checks.",
        "params": {
          "account": "Address of the account to snapshot"
        },
        "returns": {
          "_0": "(possible error, token balance, borrow balance, exchange rate mantissa)"
        }
      },
      "getCash()": {
        "returns": {
          "_0": "The quantity of underlying asset owned by this contract"
        }
      },
      "initialize(address,address,address,uint256,string,string,uint8)": {
        "params": {
          "comptroller_": "The address of the Comptroller",
          "decimals_": "ERC-20 decimal precision of this token",
          "initialExchangeRateMantissa_": "The initial exchange rate, scaled by 1e18",
          "interestRateModel_": "The address of the interest rate model",
          "name_": "ERC-20 name of this token",
          "symbol_": "ERC-20 symbol of this token",
          "underlying_": "The address of the underlying asset"
        }
      },
      "initialize(address,address,uint256,string,string,uint8)": {
        "params": {
          "comptroller_": "The address of the Comptroller",
          "decimals_": "EIP-20 decimal precision of this token",
          "initialExchangeRateMantissa_": "The initial exchange rate, scaled by 1e18",
          "interestRateModel_": "The address of the interest rate model",
          "name_": "EIP-20 name of this token",
          "symbol_": "EIP-20 symbol of this token"
        }
      },
      "liquidateBorrow(address,address)": {
        "details": "Reverts upon any failure",
        "params": {
          "borrower": "The borrower of this cToken to be liquidated",
          "cTokenCollateral": "The market in which to seize collateral from the borrower"
        }
      },
      "mint()": {
        "details": "Reverts upon any failure"
      },
      "redeem(uint256)": {
        "details": "Accrues interest whether or not the operation succeeds, unless reverted",
        "params": {
          "redeemTokens": "The number of cTokens to redeem into underlying"
        },
        "returns": {
          "_0": "uint 0=success, otherwise a failure (see ErrorReporter.sol for details)"
        }
      },
      "redeemUnderlying(uint256)": {
        "details": "Accrues interest whether or not the operation succeeds, unless reverted",
        "params": {
          "redeemAmount": "The amount of underlying to redeem"
        },
        "returns": {
          "_0": "uint 0=success, otherwise a failure (see ErrorReporter.sol for details)"
        }
      },
      "repayBorrowBehalf(address)": {
        "params": {
          "borrower": "the account with the debt being payed off"
        }
      },
      "seize(address,address,uint256)": {
        "details": "Will fail unless called by another cToken during the process of liquidation.  Its absolutely critical to use msg.sender as the borrowed cToken and not a parameter.",
        "params": {
          "borrower": "The account having collateral seized",
          "liquidator": "The account receiving seized collateral",
          "seizeTokens": "The number of cTokens to seize"
        },
        "returns": {
          "_0": "uint 0=success, otherwise a failure (see ErrorReporter.sol for details)"
        }
      },
      "supplyRatePerBlock()": {
        "returns": {
          "_0": "The supply interest rate per block, scaled by 1e18"
        }
      },
      "totalBorrowsCurrent()": {
        "returns": {
          "_0": "The total borrows with interest"
        }
      },
      "transfer(address,uint256)": {
        "params": {
          "amount": "The number of tokens to transfer",
          "dst": "The address of the destination account"
        },
        "returns": {
          "_0": "Whether or not the transfer succeeded"
        }
      },
      "transferFrom(address,address,uint256)": {
        "params": {
          "amount": "The number of tokens to transfer",
          "dst": "The address of the destination account",
          "src": "The address of the source account"
        },
        "returns": {
          "_0": "Whether or not the transfer succeeded"
        }
      }
    },
    "title": "Compound's CErc20Delegate Contract",
    "version": 1
  },
  "userdoc": {
    "events": {
      "AccrueInterest(uint256,uint256,uint256,uint256)": {
        "notice": "Event emitted when interest is accrued"
      },
      "Approval(address,address,uint256)": {
        "notice": "EIP20 Approval event"
      },
      "Borrow(address,uint256,uint256,uint256)": {
        "notice": "Event emitted when underlying is borrowed"
      },
      "LiquidateBorrow(address,address,uint256,address,uint256)": {
        "notice": "Event emitted when a borrow is liquidated"
      },
      "Mint(address,uint256,uint256)": {
        "notice": "Event emitted when tokens are minted"
      },
      "NewAdmin(address,address)": {
        "notice": "Event emitted when pendingAdmin is accepted, which means admin is updated"
      },
      "NewComptroller(address,address)": {
        "notice": "Event emitted when comptroller is changed"
      },
      "NewMarketInterestRateModel(address,address)": {
        "notice": "Event emitted when interestRateModel is changed"
      },
      "NewPendingAdmin(address,address)": {
        "notice": "Event emitted when pendingAdmin is changed"
      },
      "NewReserveFactor(uint256,uint256)": {
        "notice": "Event emitted when the reserve factor is changed"
      },
      "Redeem(address,uint256,uint256)": {
        "notice": "Event emitted when tokens are redeemed"
      },
      "RepayBorrow(address,address,uint256,uint256,uint256)": {
        "notice": "Event emitted when a borrow is repaid"
      },
      "ReservesAdded(address,uint256,uint256)": {
        "notice": "Event emitted when the reserves are added"
      },
      "ReservesReduced(address,uint256,uint256)": {
        "notice": "Event emitted when the reserves are reduced"
      },
      "Transfer(address,address,uint256)": {
        "notice": "EIP20 Transfer event"
      }
    },
    "kind": "user",
    "methods": {
      "_acceptAdmin()": {
        "notice": "Accepts transfer of admin rights. msg.sender must be pendingAdmin"
      },
      "_becomeImplementation(bytes)": {
        "notice": "Called by the delegator on a delegate to initialize it for duty"
      },
      "_reduceReserves(uint256)": {
        "notice": "Accrues interest and reduces reserves by transferring to admin"
      },
      "_resignImplementation()": {
        "notice": "Called by the delegator on a delegate to forfeit its responsibility"
      },
      "_setComptroller(address)": {
        "notice": "Sets a new comptroller for the market"
      },
      "_setInterestRateModel(address)": {
        "notice": "accrues interest and updates the interest rate model using _setInterestRateModelFresh"
      },
      "_setPendingAdmin(address)": {
        "notice": "Begins transfer of admin rights. The newPendingAdmin must call `_acceptAdmin` to finalize the transfer."
      },
      "_setReserveFactor(uint256)": {
        "notice": "accrues interest and sets a new reserve factor for the protocol using _setReserveFactorFresh"
      },
      "accrualBlockNumber()": {
        "notice": "Block number that interest was last accrued at"
      },
      "accrueInterest()": {
        "notice": "Applies accrued interest to total borrows and reserves"
      },
      "admin()": {
        "notice": "Administrator for this contract"
      },
      "allowance(address,address)": {
        "notice": "Get the current allowance from `owner` for `spender`"
      },
      "approve(address,uint256)": {
        "notice": "Approve `spender` to transfer up to `amount` from `src`"
      },
      "balanceOf(address)": {
        "notice": "Get the token balance of the `owner`"
      },
      "balanceOfUnderlying(address)": {
        "notice": "Get the underlying balance of the `owner`"
      },
      "borrow(uint256)": {
        "notice": "Sender borrows assets from the protocol to their own address"
      },
      "borrowBalanceCurrent(address)": {
        "notice": "Accrue interest to updated borrowIndex and then calculate account's borrow balance using the updated borrowIndex"
      },
      "borrowBalanceStored(address)": {
        "notice": "Return the borrow balance of account based on stored data"
      },
      "borrowIndex()": {
        "notice": "Accumulator of the total earned interest rate since the opening of the market"
      },
      "borrowRatePerBlock()": {
        "notice": "Returns the current per-block borrow interest rate for this cToken"
      },
      "comptroller()": {
        "notice": "Contract which oversees inter-cToken operations"
      },
      "constructor": {
        "notice": "Construct an empty delegate"
      },
      "decimals()": {
        "notice": "EIP-20 token decimals for this token"
      },
      "exchangeRateCurrent()": {
        "notice": "Accrue interest then return the up-to-date exchange rate"
      },
      "exchangeRateStored()": {
        "notice": "Calculates the exchange rate from the underlying to the CToken"
      },
      "getAccountSnapshot(address)": {
        "notice": "Get a snapshot of the account's balances, and the cached exchange rate"
      },
      "getCash()": {
        "notice": "Get cash balance of this cToken in the underlying asset"
      },
      "implementation()": {
        "notice": "Implementation address for this contract"
      },
      "initialize(address,address,address,uint256,string,string,uint8)": {
        "notice": "Initialize the new money market"
      },
      "initialize(address,address,uint256,string,string,uint8)": {
        "notice": "Initialize the money market"
      },
      "interestRateModel()": {
        "notice": "Model which tells what the current interest rate should be"
      },
      "isCToken()": {
        "notice": "Indicator that this is a CToken contract (for inspection)"
      },
      "liquidateBorrow(address,address)": {
        "notice": "The sender liquidates the borrowers collateral.  The collateral seized is transferred to the liquidator."
      },
      "mint()": {
        "notice": "Sender supplies assets into the market and receives cTokens in exchange"
      },
      "name()": {
        "notice": "EIP-20 token name for this token"
      },
      "pendingAdmin()": {
        "notice": "Pending administrator for this contract"
      },
      "protocolSeizeShareMantissa()": {
        "notice": "Share of seized collateral that is added to reserves"
      },
      "redeem(uint256)": {
        "notice": "Sender redeems cTokens in exchange for the underlying asset"
      },
      "redeemUnderlying(uint256)": {
        "notice": "Sender redeems cTokens in exchange for a specified amount of underlying asset"
      },
      "repayBorrow()": {
        "notice": "Sender repays their own borrow"
      },
      "repayBorrowBehalf(address)": {
        "notice": "Sender repays a borrow belonging to borrower"
      },
      "reserveFactorMantissa()": {
        "notice": "Fraction of interest currently set aside for reserves"
      },
      "seize(address,address,uint256)": {
        "notice": "Transfers collateral tokens (this market) to the liquidator."
      },
      "supplyRatePerBlock()": {
        "notice": "Returns the current per-block supply interest rate for this cToken"
      },
      "symbol()": {
        "notice": "EIP-20 token symbol for this token"
      },
      "totalBorrows()": {
        "notice": "Total amount of outstanding borrows of the underlying in this market"
      },
      "totalBorrowsCurrent()": {
        "notice": "Returns the current total borrows plus accrued interest"
      },
      "totalReserves()": {
        "notice": "Total amount of reserves of the underlying held in this market"
      },
      "totalSupply()": {
        "notice": "Total number of tokens in circulation"
      },
      "transfer(address,uint256)": {
        "notice": "Transfer `amount` tokens from `msg.sender` to `dst`"
      },
      "transferFrom(address,address,uint256)": {
        "notice": "Transfer `amount` tokens from `src` to `dst`"
      },
      "underlying()": {
        "notice": "Underlying asset for this CToken"
      }
    },
    "notice": "CTokens which wrap an EIP-20 underlying and are delegated to",
    "version": 1
  },
  "storageLayout": {
    "storage": [
      {
        "astId": 14755,
        "contract": "contracts/CWrappedNativeDelegate.sol:CWrappedNativeDelegate",
        "label": "_notEntered",
        "offset": 0,
        "slot": "0",
        "type": "t_bool"
      },
      {
        "astId": 14758,
        "contract": "contracts/CWrappedNativeDelegate.sol:CWrappedNativeDelegate",
        "label": "name",
        "offset": 0,
        "slot": "1",
        "type": "t_string_storage"
      },
      {
        "astId": 14761,
        "contract": "contracts/CWrappedNativeDelegate.sol:CWrappedNativeDelegate",
        "label": "symbol",
        "offset": 0,
        "slot": "2",
        "type": "t_string_storage"
      },
      {
        "astId": 14764,
        "contract": "contracts/CWrappedNativeDelegate.sol:CWrappedNativeDelegate",
        "label": "decimals",
        "offset": 0,
        "slot": "3",
        "type": "t_uint8"
      },
      {
        "astId": 14773,
        "contract": "contracts/CWrappedNativeDelegate.sol:CWrappedNativeDelegate",
        "label": "admin",
        "offset": 1,
        "slot": "3",
        "type": "t_address_payable"
      },
      {
        "astId": 14776,
        "contract": "contracts/CWrappedNativeDelegate.sol:CWrappedNativeDelegate",
        "label": "pendingAdmin",
        "offset": 0,
        "slot": "4",
        "type": "t_address_payable"
      },
      {
        "astId": 14780,
        "contract": "contracts/CWrappedNativeDelegate.sol:CWrappedNativeDelegate",
        "label": "comptroller",
        "offset": 0,
        "slot": "5",
        "type": "t_contract(ComptrollerInterface)15435"
      },
      {
        "astId": 14784,
        "contract": "contracts/CWrappedNativeDelegate.sol:CWrappedNativeDelegate",
        "label": "interestRateModel",
        "offset": 0,
        "slot": "6",
        "type": "t_contract(InterestRateModel)15785"
      },
      {
        "astId": 14786,
        "contract": "contracts/CWrappedNativeDelegate.sol:CWrappedNativeDelegate",
        "label": "initialExchangeRateMantissa",
        "offset": 0,
        "slot": "7",
        "type": "t_uint256"
      },
      {
        "astId": 14789,
        "contract": "contracts/CWrappedNativeDelegate.sol:CWrappedNativeDelegate",
        "label": "reserveFactorMantissa",
        "offset": 0,
        "slot": "8",
        "type": "t_uint256"
      },
      {
        "astId": 14792,
        "contract": "contracts/CWrappedNativeDelegate.sol:CWrappedNativeDelegate",
        "label": "accrualBlockNumber",
        "offset": 0,
        "slot": "9",
        "type": "t_uint256"
      },
      {
        "astId": 14795,
        "contract": "contracts/CWrappedNativeDelegate.sol:CWrappedNativeDelegate",
        "label": "borrowIndex",
        "offset": 0,
        "slot": "10",
        "type": "t_uint256"
      },
      {
        "astId": 14798,
        "contract": "contracts/CWrappedNativeDelegate.sol:CWrappedNativeDelegate",
        "label": "totalBorrows",
        "offset": 0,
        "slot": "11",
        "type": "t_uint256"
      },
      {
        "astId": 14801,
        "contract": "contracts/CWrappedNativeDelegate.sol:CWrappedNativeDelegate",
        "label": "totalReserves",
        "offset": 0,
        "slot": "12",
        "type": "t_uint256"
      },
      {
        "astId": 14804,
        "contract": "contracts/CWrappedNativeDelegate.sol:CWrappedNativeDelegate",
        "label": "totalSupply",
        "offset": 0,
        "slot": "13",
        "type": "t_uint256"
      },
      {
        "astId": 14808,
        "contract": "contracts/CWrappedNativeDelegate.sol:CWrappedNativeDelegate",
        "label": "accountTokens",
        "offset": 0,
        "slot": "14",
        "type": "t_mapping(t_address,t_uint256)"
      },
      {
        "astId": 14814,
        "contract": "contracts/CWrappedNativeDelegate.sol:CWrappedNativeDelegate",
        "label": "transferAllowances",
        "offset": 0,
        "slot": "15",
        "type": "t_mapping(t_address,t_mapping(t_address,t_uint256))"
      },
      {
        "astId": 14824,
        "contract": "contracts/CWrappedNativeDelegate.sol:CWrappedNativeDelegate",
        "label": "accountBorrows",
        "offset": 0,
        "slot": "16",
        "type": "t_mapping(t_address,t_struct(BorrowSnapshot)14819_storage)"
      },
      {
        "astId": 15147,
        "contract": "contracts/CWrappedNativeDelegate.sol:CWrappedNativeDelegate",
        "label": "underlying",
        "offset": 0,
        "slot": "17",
        "type": "t_address"
      },
      {
        "astId": 15216,
        "contract": "contracts/CWrappedNativeDelegate.sol:CWrappedNativeDelegate",
        "label": "implementation",
        "offset": 0,
        "slot": "18",
        "type": "t_address"
      }
    ],
    "types": {
      "t_address": {
        "encoding": "inplace",
        "label": "address",
        "numberOfBytes": "20"
      },
      "t_address_payable": {
        "encoding": "inplace",
        "label": "address payable",
        "numberOfBytes": "20"
      },
      "t_bool": {
        "encoding": "inplace",
        "label": "bool",
        "numberOfBytes": "1"
      },
      "t_contract(ComptrollerInterface)15435": {
        "encoding": "inplace",
        "label": "contract ComptrollerInterface",
        "numberOfBytes": "20"
      },
      "t_contract(InterestRateModel)15785": {
        "encoding": "inplace",
        "label": "contract InterestRateModel",
        "numberOfBytes": "20"
      },
      "t_mapping(t_address,t_mapping(t_address,t_uint256))": {
        "encoding": "mapping",
        "key": "t_address",
        "label": "mapping(address => mapping(address => uint256))",
        "numberOfBytes": "32",
        "value": "t_mapping(t_address,t_uint256)"
      },
      "t_mapping(t_address,t_struct(BorrowSnapshot)14819_storage)": {
        "encoding": "mapping",
        "key": "t_address",
        "label": "mapping(address => struct CTokenStorage.BorrowSnapshot)",
        "numberOfBytes": "32",
        "value": "t_struct(BorrowSnapshot)14819_storage"
      },
      "t_mapping(t_address,t_uint256)": {
        "encoding": "mapping",
        "key": "t_address",
        "label": "mapping(address => uint256)",
        "numberOfBytes": "32",
        "value": "t_uint256"
      },
      "t_string_storage": {
        "encoding": "bytes",
        "label": "string",
        "numberOfBytes": "32"
      },
      "t_struct(BorrowSnapshot)14819_storage": {
        "encoding": "inplace",
        "label": "struct CTokenStorage.BorrowSnapshot",
        "members": [
          {
            "astId": 14816,
            "contract": "contracts/CWrappedNativeDelegate.sol:CWrappedNativeDelegate",
            "label": "principal",
            "offset": 0,
            "slot": "0",
            "type": "t_uint256"
          },
          {
            "astId": 14818,
            "contract": "contracts/CWrappedNativeDelegate.sol:CWrappedNativeDelegate",
            "label": "interestIndex",
            "offset": 0,
            "slot": "1",
            "type": "t_uint256"
          }
        ],
        "numberOfBytes": "64"
      },
      "t_uint256": {
        "encoding": "inplace",
        "label": "uint256",
        "numberOfBytes": "32"
      },
      "t_uint8": {
        "encoding": "inplace",
        "label": "uint8",
        "numberOfBytes": "1"
      }
    }
  }
}