{
  "address": "0xC4042Ad56CcdDD81EBc462d29606F0392d6F4dBC",
  "abi": [
    {
      "inputs": [
        {
          "internalType": "address",
          "name": "governor",
          "type": "address"
        }
      ],
      "name": "createSmartOwner",
      "outputs": [],
      "stateMutability": "nonpayable",
      "type": "function"
    },
    {
      "inputs": [
        {
          "internalType": "address",
          "name": "smartOwner",
          "type": "address"
        }
      ],
      "name": "isValidSmartAccount",
      "outputs": [
        {
          "internalType": "bool",
          "name": "",
          "type": "bool"
        }
      ],
      "stateMutability": "view",
      "type": "function"
    },
    {
      "inputs": [
        {
          "internalType": "address",
          "name": "",
          "type": "address"
        }
      ],
      "name": "smartOwnerPool",
      "outputs": [
        {
          "internalType": "bool",
          "name": "",
          "type": "bool"
        }
      ],
      "stateMutability": "view",
      "type": "function"
    }
  ],
  "transactionHash": "0xb23b0135f622e17f5d436cc26c48d97239bc08ad495d870bf34e10903794cc2a",
  "args": [],
  "numDeployments": 1,
  "solcInputHash": "7464bb5b9ecc691475df25db42711c3b",
  "bytecode": "0x608060405234801561001057600080fd5b50613939806100206000396000f3fe608060405234801561001057600080fd5b50600436106100415760003560e01c8063cafe230414610046578063dd7fb05214610086578063eeb11c92146100a9575b600080fd5b61007261005436600461012d565b6001600160a01b031660009081526020819052604090205460ff1690565b604051901515815260200160405180910390f35b61007261009436600461012d565b60006020819052908152604090205460ff1681565b6100bc6100b736600461012d565b6100be565b005b6000816040516100cd90610120565b6001600160a01b039091168152602001604051809103906000f0801580156100f9573d6000803e3d6000fd5b506001600160a01b03166000908152602081905260409020805460ff191660011790555050565b6137a68061015e83390190565b60006020828403121561013f57600080fd5b81356001600160a01b038116811461015657600080fd5b939250505056fe60806040523480156200001157600080fd5b50604051620037a6380380620037a6833981016040819052620000349162000069565b600080546001600160a01b039092166801000000000000000002600160401b600160e01b03199092169190911790556200009b565b6000602082840312156200007c57600080fd5b81516001600160a01b03811681146200009457600080fd5b9392505050565b6136fb80620000ab6000396000f3fe60806040526004361061014f5760003560e01c8063809dab6a116100b6578063b8cc9ce61161006f578063b8cc9ce6146103e0578063c55e066f14610400578063dfed69c314610430578063e408a76d14610450578063e8c6ccc914610472578063fd7a15db1461048757600080fd5b8063809dab6a1461031357806386b9d81f146103285780638949590614610348578063965f8d991461036857806396d7b514146103885780639bb66b28146103c057600080fd5b806323e7d9f91161010857806323e7d9f914610245578063264aaa521461025a5780633e46dc291461028f57806340c1ce6f146102b1578063565a2e2c146102d157806369328dec146102f357600080fd5b806303b9d4c01461015b5780630c340a24146101915780630dcc07cd146101d05780630fa013ac146101f25780631b99d9d61461020e57806322b3ac0a1461022357600080fd5b3661015657005b600080fd5b34801561016757600080fd5b5061017b610176366004612bdc565b6104a7565b6040516101889190612c8b565b60405180910390f35b34801561019d57600080fd5b506000546101b890600160401b90046001600160a01b031681565b6040516001600160a01b039091168152602001610188565b3480156101dc57600080fd5b506101f06101eb366004612da0565b61050b565b005b3480156101fe57600080fd5b5060405160008152602001610188565b34801561021a57600080fd5b506101f0610555565b34801561022f57600080fd5b5061023861059d565b6040516101889190612e30565b34801561025157600080fd5b506101f06105c6565b34801561026657600080fd5b5061026f61060c565b604080516001600160a01b03938416815292909116602083015201610188565b34801561029b57600080fd5b506102a461064b565b6040516101889190612e4b565b3480156102bd57600080fd5b506101f06102cc366004612ee2565b61066f565b3480156102dd57600080fd5b506102e66106b6565b6040516101889190613010565b3480156102ff57600080fd5b506101f061030e3660046130c6565b6106d3565b34801561031f57600080fd5b5061017b610804565b34801561033457600080fd5b506101f0610343366004613102565b61082e565b34801561035457600080fd5b506101f0610363366004613135565b610864565b34801561037457600080fd5b506101f0610383366004613169565b6108ab565b34801561039457600080fd5b506000546103a8906001600160401b031681565b6040516001600160401b039091168152602001610188565b6103d36103ce3660046131eb565b6108f2565b604051610188919061326d565b3480156103ec57600080fd5b506101f06103fb366004613280565b6109ef565b34801561040c57600080fd5b5061042061041b366004613280565b610a29565b6040519015158152602001610188565b34801561043c57600080fd5b506101b861044b366004613135565b610a92565b34801561045c57600080fd5b50610465610ac7565b604051610188919061329b565b34801561047e57600080fd5b506103a8610aeb565b34801561049357600080fd5b506101f06104a236600461330f565b610b01565b604080518082019091526060815260006020820152600054600160401b90046001600160a01b031633146104ed576040516282b42960e81b815260040160405180910390fd5b600054610503906001600160401b031683610bcb565b90505b919050565b600054600160401b90046001600160a01b0316331461053c576040516282b42960e81b815260040160405180910390fd5b600054610552906001600160401b031682610c19565b50565b600054600160401b90046001600160a01b03163314610586576040516282b42960e81b815260040160405180910390fd5b60005461059b906001600160401b0316610c60565b565b6040805160208101909152606081526000546105c1906001600160401b0316610ca7565b905090565b600054600160401b90046001600160a01b031633146105f7576040516282b42960e81b815260040160405180910390fd5b60005461059b906001600160401b0316610cec565b6000805481908190610626906001600160401b0316610d0f565b90506106358160000151610a92565b92506106448160200151610a92565b9150509091565b6040805160208101909152606081526000546105c1906001600160401b0316610d69565b600054600160401b90046001600160a01b031633146106a0576040516282b42960e81b815260040160405180910390fd5b600054610552906001600160401b031682610da6565b6106be612939565b6000546105c1906001600160401b0316610dc9565b600054600160401b90046001600160a01b03163314610704576040516282b42960e81b815260040160405180910390fd5b6001600160a01b03831661078c576000816001600160a01b03168360405160006040518083038185875af1925050503d806000811461075f576040519150601f19603f3d011682016040523d82523d6000602084013e610764565b606091505b50509050806107865760405163e6c4247b60e01b815260040160405180910390fd5b50505050565b60405163a9059cbb60e01b81526001600160a01b0382811660048301526024820184905284169063a9059cbb906044016020604051808303816000875af11580156107db573d6000803e3d6000fd5b505050506040513d601f19601f82011682018060405250810190610786919061332c565b505050565b6040805180820190915260608152600060208201526000546105c1906001600160401b0316610e00565b6001600160a01b038216301461085757604051630134249960e71b815260040160405180910390fd5b61086081610e43565b5050565b600054600160401b90046001600160a01b03163314610895576040516282b42960e81b815260040160405180910390fd5b600054610552906001600160401b031682610ee9565b600054600160401b90046001600160a01b031633146108dc576040516282b42960e81b815260040160405180910390fd5b600054610552906001600160401b031682610f0c565b600054606090600160401b90046001600160a01b03163314610926576040516282b42960e81b815260040160405180910390fd5b6000846001600160a01b0316348585604051610943929190613349565b60006040518083038185875af1925050503d8060008114610980576040519150601f19603f3d011682016040523d82523d6000602084013e610985565b606091505b509250905080610999573d6000803e3d6000fd5b34856001600160a01b0316336001600160a01b03167f7d2476ab50663f025cff0be85655bcf355f62768615c0c478f3cd5293f80736587876040516109df929190613359565b60405180910390a4509392505050565b600054600160401b90046001600160a01b03163314610a20576040516282b42960e81b815260040160405180910390fd5b61055281610e43565b6000610503610a8083604080516020808201835260609182905282519081018352604160f41b8184015292901b6bffffffffffffffffffffffff191660428301528051603681840301815260568301909152815290565b6000546001600160401b031690610f2f565b8051805160009190601614610aba5760405163e6c4247b60e01b815260040160405180910390fd5b6022015160601c92915050565b6040805160208101909152606081526000546105c1906001600160401b0316610f5f565b600080546105c1906001600160401b0316610f9c565b600054600160401b90046001600160a01b03163314610b32576040516282b42960e81b815260040160405180910390fd5b806001600160401b0316600003610b5c5760405163ed488aa360e01b815260040160405180910390fd5b6000546001600160401b031615610b865760405163559ba16d60e01b815260040160405180910390fd5b6000805467ffffffffffffffff19166001600160401b038316178155610bab30610fce565b9050610860610bb9826110e1565b6000546001600160401b031690611136565b6040805180820190915260608152600060208201526000610beb83611159565b90506000610c03856387ed0a64605185600080611197565b9050610c0e816111e8565b925050505b92915050565b6000610c248261124c565b90506000610c3c8463c4d53d04605185600080611197565b9050805160001461078657604051630e74990760e01b815260040160405180910390fd5b6040805160008082526020820190925290610c838363da78d7f983858180611197565b905080516000146107ff57604051630e74990760e01b815260040160405180910390fd5b60408051602080820183526060825282516000808252918101909352909190610cd98463a7a912418385816001611197565b9050610ce4816112f8565b949350505050565b6040805160008082526020820190925290610c8383638c5dff5583858180611197565b610d3a6040805160608082018352818301818152825282516020818101909452908152909182015290565b6040805160008082526020820190925290610d5e8463c33a1cc68385816001611197565b9050610ce48161132d565b60408051602080820183526060825282516000808252918101909352909190610d9b846366ee0a908385816001611197565b9050610ce4816113d0565b6000610db182611527565b90506000610c3c84635d9dfc2c605185600080611197565b610dd1612939565b6040805160008082526020820190925290610df58463f7e4e2998385816001611197565b9050610ce481611570565b60408051808201825260608152600060208083018290528351828152908101909352909190610e388463eff983fa8385816001611197565b9050610ce4816111e8565b6001600160a01b038116610e6a57604051630134249960e71b815260040160405180910390fd5b600054604080516001600160a01b03600160401b9093048316815291831660208301527f6fadb1c244276388aee22be93b919985a18748c021e5d48553957a48101a2560910160405180910390a1600080546001600160a01b03909216600160401b0268010000000000000000600160e01b0319909216919091179055565b6000610ef4826117ba565b90506000610c3c846349b439a4605185600080611197565b6000610f17826117e2565b90506000610c3c84633f636d00605185600080611197565b600080610f3b83611855565b90506000610f54856314c1cb9760518560006001611197565b9050610c0e81611873565b60408051602080820183526060825282516000808252918101909352909190610f9184634f72955f8385816001611197565b9050610ce48161188a565b604080516000808252602082019092526000610fc38463e5f8de4860008560006001611197565b9050610ce48161196f565b6040805161020560f11b6020820152606083901b6bffffffffffffffffffffffff1916602282015281516016818303018152603690910191829052600091829081906001607f60991b0190611024908590613388565b600060405180830381855afa9150503d806000811461105f576040519150601f19603f3d011682016040523d82523d6000602084013e611064565b606091505b5090925090506001821515146110c15760405162461bcd60e51b815260206004820152601960248201527f7265736f6c7665206574682061646472657373206572726f720000000000000060448201526064015b60405180910390fd5b6000818060200190518101906110d791906133a4565b9695505050505050565b60408051602081019091526060815260006110fb8361197d565b90506040518060200160405280826000015160405160200161111d91906133bd565b60408051601f1981840301815291905290529392505050565b600061114182611855565b90506000610c3c84633c3c5e9b605185600080611197565b6060600061116760406119cd565b90506111748160016119ee565b611187611180846119fa565b8290611b19565b61119081611b32565b9392505050565b60606064876001600160401b031610156111cf5760405163a292827360e01b81526001600160401b03881660048201526024016110b8565b6111dd878787878787611b7d565b979650505050505050565b604080518082019091526060808252600060208301819052835115611226576112118482611c73565b815191935091501561122657610ce482611e28565b505060408051600081830181815260608301909352918152602081019190915292915050565b6060600061125a60406119cd565b90506112678160026119ee565b825151611275908290611b19565b6020830151516112869082906119ee565b60005b836020015151816001600160401b031610156112ee576112dc8460200151826001600160401b0316815181106112c1576112c16133e3565b60200260200101516000015183611b1990919063ffffffff16565b806112e68161340f565b915050611289565b5061119081611b32565b6040805160208101909152606081526000806113148482611f84565b925090506113228483611c73565b508352509092915050565b6113586040805160608082018352818301818152825282516020818101909452908152909182015290565b6000806113658482611f84565b925090506002811461137957611379613435565b6113838483611c73565b84519190915291506113958483612000565b6113b3576113a38483611c73565b60208501519190915291506113c9565b6040805160008152602080820190925290840151525b5050919050565b6040805160208101909152606081526040805180820190915260608152600060208201819052906060600080806114078882611f84565b935091506001821461141b5761141b613435565b6114258884611f84565b93509150816001600160401b0381111561144157611441612a89565b60405190808252806020026020018201604052801561147a57816020015b61146761295e565b81526020019060019003908161145f5790505b50875260005b8281101561151b576114928985611f84565b94509150600282146114a6576114a6613435565b6114b08985612031565b90975093506114bf8985611c73565b90955093506114cd85611e28565b955060405180604001604052808860070b815260200187815250886000015182815181106114fd576114fd6133e3565b602002602001018190525080806115139061344b565b915050611480565b50505050505050919050565b6060600061153560406119cd565b90506115428160036119ee565b825151611550908290611b19565b61156061118084602001516119fa565b60408301516111879082906120ce565b611578612939565b60606000806115878582611f84565b925090506002811461159b5761159b613435565b6115a58583611f84565b92509050600281146115b9576115b9613435565b6115c38583611c73565b8551519190915291506115d68583611f84565b92509050600381146115ea576115ea613435565b6115f48583611c73565b81519194509250156116155761160983611e28565b8451602001515261163d565b6040805160008183018181526060830190935290918291508152600060209182015285510151525b6116478583611c73565b815191945092501561166b5761165c83611e28565b84516020908101510152611695565b60408051600081830181815260608301909352909182915081526000602091820152855181015101525b61169f85836120da565b8551602001516001600160401b0390921660409092019190915291506116c58583612000565b6117b2576116d38583611f84565b92509050600581146116e7576116e7613435565b6116f18583611c73565b6020860151519190915291506117078583611c73565b81519194509250156117295761171c83611e28565b6020808601510152611752565b604080516000818301818152606083019093529091829150815260006020918201528581015101525b61175c85836120da565b60208601516001600160401b0390921660409092019190915291506117818583612159565b6020860151911515606090920191909152915061179e8583612159565b602086015191151560809092019190915291505b505050919050565b606060006117c860406119cd565b90506117d58160016119ee565b8251611187908290611b19565b606060006117f060406119cd565b90506117fd8160016119ee565b82515161180b9082906119ee565b60005b8351516001600160401b03821610156112ee576118438460000151826001600160401b0316815181106112c1576112c16133e3565b8061184d8161340f565b91505061180e565b6060600061186360406119cd565b8351909150611187908290611b19565b600080806118818482612159565b50949350505050565b6040805160208101909152606081526000806118a68482611f84565b92509050600181146118ba576118ba613435565b6118c48483611f84565b92509050806001600160401b038111156118e0576118e0612a89565b60405190808252806020026020018201604052801561192057816020015b6040805160208101909152606081528152602001906001900390816118fe5790505b50835260005b818110156117b2576119388584611c73565b855180518490811061194c5761194c6133e3565b6020908102919091010151919091529250806119678161344b565b915050611926565b6000808061188184826120da565b6040805180820190915260608152600060208201525b6701ffffffffffffff600783901c1691607f1660008390036119b9576113c982826121f4565b6119c682608083176121f4565b5050611993565b6119d5612992565b80516119e1908361225d565b5060006020820152919050565b610860826004836122d4565b805151606090600090611a0e906001613464565b6001600160401b03811115611a2557611a25612a89565b6040519080825280601f01601f191660200182016040528015611a4f576020820181803683370190505b509050826020015115156001151514611a69576000611a6f565b600160f81b5b81600081518110611a8257611a826133e3565b60200101906001600160f81b031916908160001a905350600160005b845151811015611b10578451805182908110611abc57611abc6133e3565b602001015160f81c60f81b838381518110611ad957611ad96133e3565b60200101906001600160f81b031916908160001a90535081611afa8161344b565b9250508080611b089061344b565b915050611a9e565b50909392505050565b611b2682600283516122db565b81516107ff90826123f4565b60608160200151600014611b775760405162461bcd60e51b815260206004820152600c60248201526b24b73b30b634b21021a127a960a11b60448201526064016110b8565b50515190565b60604783811015611bab57604051634787a10360e11b815260048101829052602481018590526044016110b8565b6000806005607f60991b01898787611bc4576000611bc7565b60015b8b8b8f604051602001611bdf96959493929190613477565b60408051601f1981840301815290829052611bf991613388565b600060405180830381855af49150503d8060008114611c34576040519150601f19603f3d011682016040523d82523d6000602084013e611c39565b606091505b509150915081611c5c57604051638a7db5bf60e01b815260040160405180910390fd5b611c6581612415565b9a9950505050505050505050565b60606000806000611c8486866124f8565b96509092506001600160401b0316905060ff821660061480611ca9575060ff82166002145b611d0c5760405162461bcd60e51b815260206004820152602e60248201527f696e76616c6964206d616a20286578706563746564204d616a546167206f722060448201526d4d616a42797465537472696e672960901b60648201526084016110b8565b60051960ff831601611d4557611d2286866124f8565b96509092506001600160401b0316905060ff8216600214611d4557611d45613435565b6000611d518287613464565b90506000826001600160401b03811115611d6d57611d6d612a89565b6040519080825280601f01601f191660200182016040528015611d97576020820181803683370190505b5090506000875b83811015611e0c57898181518110611db857611db86133e3565b602001015160f81c60f81b838381518110611dd557611dd56133e3565b60200101906001600160f81b031916908160001a90535081611df68161344b565b9250508080611e049061344b565b915050611d9e565b5081611e18858a613464565b9650965050505050509250929050565b6040805180820190915260608152600060208201528151600003611e71575050604080516080810182526001918101918252600060608201819052918152602081019190915290565b600060018351611e8191906134c6565b6001600160401b03811115611e9857611e98612a89565b6040519080825280601f01601f191660200182016040528015611ec2576020820181803683370190505b509050600083600081518110611eda57611eda6133e3565b01602001516001600160f81b031916600160f81b03611ef7575060015b60015b8451811015611f6957848181518110611f1557611f156133e3565b01602001516001600160f81b03191683611f306001846134c6565b81518110611f4057611f406133e3565b60200101906001600160f81b031916908160001a90535080611f618161344b565b915050611efa565b50604080518082019091529182521515602082015292915050565b600080600080611f9486866124f8565b96509092506001600160401b0316905060ff8216600414611ff75760405162461bcd60e51b815260206004820152601f60248201527f696e76616c6964206d616a20286578706563746564204d616a4172726179290060448201526064016110b8565b95939450505050565b6000828281518110612014576120146133e3565b6020910101516001600160f81b031916607b60f91b149392505050565b60008060008061204186866124f8565b96509092506001600160401b0316905060ff821660011480612064575060ff8216155b611ff75760405162461bcd60e51b815260206004820152603560248201527f696e76616c6964206d616a20286578706563746564204d616a5369676e6564496044820152746e74206f72204d616a556e7369676e6564496e742960581b60648201526084016110b8565b610860826000836122db565b6000806000806120ea86866124f8565b96509092506001600160401b0316905060ff821615611ff75760405162461bcd60e51b815260206004820152602560248201527f696e76616c6964206d616a20286578706563746564204d616a556e7369676e6560448201526464496e742960d81b60648201526084016110b8565b60008060008061216986866124f8565b96509092506001600160401b0316905060ff82166007146121cc5760405162461bcd60e51b815260206004820152601f60248201527f696e76616c6964206d616a20286578706563746564204d616a4f74686572290060448201526064016110b8565b60158114806121db5750601481145b6121e7576121e7613435565b6014141595939450505050565b6040805180820190915260608152600060208201528251516000612219826001613464565b90508460200151821061223a5761223a856122358360026134d9565b6126d2565b8451602083820101858153508051821115612253578181525b5093949350505050565b60408051808201909152606081526000602082015261227d6020836134f0565b156122a55761228d6020836134f0565b6122989060206134c6565b6122a29083613464565b91505b6020808401839052604051808552600081529081840101818110156122c957600080fd5b604052509192915050565b6107ff8383835b6017816001600160401b0316116123015782516107869060e0600585901b1683176121f4565b60ff816001600160401b031611612341578251612329906018611fe0600586901b16176121f4565b508251610786906001600160401b03831660016126e9565b61ffff816001600160401b03161161238257825161236a906019611fe0600586901b16176121f4565b508251610786906001600160401b03831660026126e9565b63ffffffff816001600160401b0316116123c55782516123ad90601a611fe0600586901b16176121f4565b508251610786906001600160401b03831660046126e9565b82516123dc90601b611fe0600586901b16176121f4565b508251610786906001600160401b03831660086126e9565b6040805180820190915260608152600060208201526111908383845161276e565b60606000806000848060200190518101906124309190613512565b919450925090506001600160401b03821661246a5780511561246557604051630e74990760e01b815260040160405180910390fd5b6124d6565b6001600160401b0382166051148061248b57506001600160401b0382166071145b156124b257805160000361246557604051630e74990760e01b815260040160405180910390fd5b60405163f1f6bced60e01b81526001600160401b03831660048201526024016110b8565b8215610ce45760405163d4bb667160e01b8152600481018490526024016110b8565b600080600080612508868661283f565b9050612515600186613464565b94506007600582901c16601f8216601c81106125815760405162461bcd60e51b815260206004820152602560248201527f63616e6e6f742068616e646c6520686561646572732077697468206578747261604482015264203e20323760d81b60648201526084016110b8565b60188160ff16101561259f5790945060ff1692508491506126cb9050565b8060ff1660180361261b5760006125b6898961283f565b90506125c3600189613464565b975060188160ff1610156126085760405162461bcd60e51b815260206004820152600c60248201526b34b73b30b634b21031b137b960a11b60448201526064016110b8565b9195505060ff1692508491506126cb9050565b8060ff16601903612655576000612632898961288e565b905061263f600289613464565b97509195505061ffff1692508491506126cb9050565b8060ff16601a0361269157600061266c89896128c7565b9050612679600489613464565b97509195505063ffffffff1692508491506126cb9050565b8060ff16601b146126a4576126a4613435565b60006126b08989612900565b90506126bd600889613464565b975091955090935085925050505b9250925092565b81516126de838361225d565b5061078683826123f4565b604080518082019091526060815260006020820152835151600061270d8285613464565b9050856020015181111561272a5761272a866122358360026134d9565b6000600161273a8661010061368b565b61274491906134c6565b90508651828101878319825116178152508051831115612762578281525b50959695505050505050565b604080518082019091526060815260006020820152825182111561279157600080fd5b83515160006127a08483613464565b905085602001518111156127bd576127bd866122358360026134d9565b8551805183820160200191600091808511156127d7578482525b505050602086015b6020861061281757805182526127f6602083613464565b9150612803602082613464565b90506128106020876134c6565b95506127df565b51815160001960208890036101000a0190811690199190911617905250849150509392505050565b600061284c826001613464565b8351101561286c5760405162461bcd60e51b81526004016110b890613697565b82828151811061287e5761287e6133e3565b016020015160f81c905092915050565b600061289b826002613464565b835110156128bb5760405162461bcd60e51b81526004016110b890613697565b50016020015160f01c90565b60006128d4826004613464565b835110156128f45760405162461bcd60e51b81526004016110b890613697565b50016020015160e01c90565b600061290d826008613464565b8351101561292d5760405162461bcd60e51b81526004016110b890613697565b50016020015160c01c90565b604051806040016040528061294c6129c7565b81526020016129596129e7565b905290565b6040518060400160405280600060070b81526020016129596040518060400160405280606081526020016000151581525090565b60405180604001604052806129ba604051806040016040528060608152602001600081525090565b8152602001600081525090565b604080516060808201835291810191825290815260208101612959612a3c565b6040805160c08101909152606060a0820190815281908152602001612a216040518060400160405280606081526020016000151581525090565b81526000602082018190526040820181905260609091015290565b6040805160a0810190915260608082019081526000608083015281908152602001612a7c6040518060400160405280606081526020016000151581525090565b8152600060209091015290565b634e487b7160e01b600052604160045260246000fd5b604080519081016001600160401b0381118282101715612ac157612ac1612a89565b60405290565b604051601f8201601f191681016001600160401b0381118282101715612aef57612aef612a89565b604052919050565b60006001600160401b03821115612b1057612b10612a89565b50601f01601f191660200190565b600082601f830112612b2f57600080fd5b8135612b42612b3d82612af7565b612ac7565b818152846020838601011115612b5757600080fd5b816020850160208301376000918101602001919091529392505050565b801515811461055257600080fd5b600060408284031215612b9457600080fd5b612b9c612a9f565b905081356001600160401b03811115612bb457600080fd5b612bc084828501612b1e565b8252506020820135612bd181612b74565b602082015292915050565b600060208284031215612bee57600080fd5b81356001600160401b03811115612c0457600080fd5b610ce484828501612b82565b60005b83811015612c2b578181015183820152602001612c13565b50506000910152565b60008151808452612c4c816020860160208601612c10565b601f01601f19169290920160200192915050565b6000815160408452612c756040850182612c34565b6020938401511515949093019390935250919050565b6020815260006111906020830184612c60565b600060208284031215612cb057600080fd5b604051602081016001600160401b038282108183111715612cd357612cd3612a89565b816040528293508435915080821115612ceb57600080fd5b50612cf885828601612b1e565b8252505092915050565b600082601f830112612d1357600080fd5b813560206001600160401b0380831115612d2f57612d2f612a89565b8260051b612d3e838201612ac7565b9384528581018301938381019088861115612d5857600080fd5b84880192505b85831015612d9457823584811115612d765760008081fd5b612d848a87838c0101612c9e565b8352509184019190840190612d5e565b98975050505050505050565b600060208284031215612db257600080fd5b81356001600160401b0380821115612dc957600080fd5b9083019060408286031215612ddd57600080fd5b612de5612a9f565b823582811115612df457600080fd5b612e0087828601612c9e565b825250602083013582811115612e1557600080fd5b612e2187828601612d02565b60208301525095945050505050565b6020815260008251602080840152610ce46040840182612c34565b6000602080835260408084018551838487015281815180845260608801915060608160051b8901019350858301925060005b81811015612ebf57888503605f190183528351805160070b8652870151878601879052612eac87870182612c60565b9550509286019291860191600101612e7d565b509298975050505050505050565b6001600160401b038116811461055257600080fd5b600060208284031215612ef457600080fd5b81356001600160401b0380821115612f0b57600080fd5b9083019060608286031215612f1f57600080fd5b604051606081018181108382111715612f3a57612f3a612a89565b604052823582811115612f4c57600080fd5b612f5887828601612c9e565b825250602083013582811115612f6d57600080fd5b612f7987828601612b82565b60208301525060408301359250612f8f83612ecd565b6040810192909252509392505050565b6000815160a0845280519050602060a0850152612fbf60c0850182612c34565b905060208301518482036020860152612fd88282612c60565b9150506001600160401b0360408401511660408501526060830151151560608501526080830151151560808501528091505092915050565b600060208083528351604082850152805160406060860152805190508260a086015261303f60c0860182612c34565b9050828201519150605f198582030160808601528151606082526130666060830182612c60565b9050838301518282038584015261307d8282612c60565b9150506001600160401b036040840151166040830152838701519350601f198682030160408701526111dd8185612f9f565b80356001600160a01b038116811461050657600080fd5b6000806000606084860312156130db57600080fd5b6130e4846130af565b9250602084013591506130f9604085016130af565b90509250925092565b6000806040838503121561311557600080fd5b61311e836130af565b915061312c602084016130af565b90509250929050565b60006020828403121561314757600080fd5b81356001600160401b0381111561315d57600080fd5b610ce484828501612c9e565b60006020828403121561317b57600080fd5b81356001600160401b038082111561319257600080fd5b90830190602082860312156131a657600080fd5b6040516020810181811083821117156131c1576131c1612a89565b6040528235828111156131d357600080fd5b6131df87828601612d02565b82525095945050505050565b60008060006040848603121561320057600080fd5b613209846130af565b925060208401356001600160401b038082111561322557600080fd5b818601915086601f83011261323957600080fd5b81358181111561324857600080fd5b87602082850101111561325a57600080fd5b6020830194508093505050509250925092565b6020815260006111906020830184612c34565b60006020828403121561329257600080fd5b611190826130af565b60006020808352604083018451828386015281815180845260608701915060608160051b8801019350848301925060005b8181101561330257878503605f190183528351518686526132ef87870182612c34565b95505092850192918501916001016132cc565b5092979650505050505050565b60006020828403121561332157600080fd5b813561119081612ecd565b60006020828403121561333e57600080fd5b815161119081612b74565b8183823760009101908152919050565b60208152816020820152818360408301376000818301604090810191909152601f909201601f19160101919050565b6000825161339a818460208701612c10565b9190910192915050565b6000602082840312156133b657600080fd5b5051919050565b60008152600082516133d6816001850160208701612c10565b9190910160010192915050565b634e487b7160e01b600052603260045260246000fd5b634e487b7160e01b600052601160045260246000fd5b60006001600160401b0380831681810361342b5761342b6133f9565b6001019392505050565b634e487b7160e01b600052600160045260246000fd5b60006001820161345d5761345d6133f9565b5060010190565b80820180821115610c1357610c136133f9565b60006001600160401b0380891683528760208401528087166040840152808616606084015260c060808401526134b060c0840186612c34565b915080841660a084015250979650505050505050565b81810381811115610c1357610c136133f9565b8082028115828204841417610c1357610c136133f9565b60008261350d57634e487b7160e01b600052601260045260246000fd5b500690565b60008060006060848603121561352757600080fd5b83519250602084015161353981612ecd565b60408501519092506001600160401b0381111561355557600080fd5b8401601f8101861361356657600080fd5b8051613574612b3d82612af7565b81815287602083850101111561358957600080fd5b61359a826020830160208601612c10565b8093505050509250925092565b600181815b808511156135e25781600019048211156135c8576135c86133f9565b808516156135d557918102915b93841c93908002906135ac565b509250929050565b6000826135f957506001610c13565b8161360657506000610c13565b816001811461361c576002811461362657613642565b6001915050610c13565b60ff841115613637576136376133f9565b50506001821b610c13565b5060208310610133831016604e8410600b8410161715613665575081810a610c13565b61366f83836135a7565b8060001904821115613683576136836133f9565b029392505050565b600061119083836135ea565b602080825260149082015273736c6963696e67206f7574206f662072616e676560601b60408201526060019056fea2646970667358221220585a0216ad9d5197aa8f2edbc53b6f13d524e388510c17764279907ae14971be64736f6c63430008110033a2646970667358221220b30513072c81b4dd28f1de3432af6d6864809a6c01e6f3e3aeced776eaf697ec64736f6c63430008110033",
  "devdoc": {
    "kind": "dev",
    "methods": {},
    "version": 1
  },
  "userdoc": {
    "kind": "user",
    "methods": {},
    "version": 1
  },
  "storageLayout": {
    "storage": [
      {
        "astId": 4919,
        "contract": "contracts/Fevm/FilSmartOwnerFactory.sol:FilSmartOwnerFactory",
        "label": "smartOwnerPool",
        "offset": 0,
        "slot": "0",
        "type": "t_mapping(t_address,t_bool)"
      }
    ],
    "types": {
      "t_address": {
        "encoding": "inplace",
        "label": "address",
        "numberOfBytes": "20"
      },
      "t_bool": {
        "encoding": "inplace",
        "label": "bool",
        "numberOfBytes": "1"
      },
      "t_mapping(t_address,t_bool)": {
        "encoding": "mapping",
        "key": "t_address",
        "label": "mapping(address => bool)",
        "numberOfBytes": "32",
        "value": "t_bool"
      }
    }
  }
}